:020000040800F2
:1000000000B101209D010008751F0008D10F0008F4
:10001000711F0008A10B0008433800080000000011
:100020000000000000000000000000000F30000889
:10003000650C000800000000E72700081D320008DA
:10004000B7010008B7010008B7010008B7010008B0
:10005000B7010008B7010008B7010008B7010008A0
:10006000B7010008B7010008B7010008B701000890
:10007000B7010008B7010008B7010008B701000880
:10008000B7010008B7010008B7010008B701000870
:10009000B7010008B7010008B7010008B701000860
:1000A000B7010008B7010008B7010008B701000850
:1000B000B701000889320008B7010008B70100083D
:1000C000B7010008B7010008B7010008B701000830
:1000D000B7010008FD3400082D350008B7010008FD
:1000E000B7010008B7010008B7010008B701000810
:1000F000B7010008B7010008B7010008B701000800
:10010000B7010008B7010008B7010008B7010008EF
:10011000B7010008B7010008B70100089D330008C7
:10012000B7010008B7010008B7010008B7010008CF
:10013000B7010008B7010008B7010008B7010008BF
:10014000B7010008B7010008B7010008B7010008AF
:10015000B7010008B7010008B7010008B70100089F
:10016000B7010008B7010008B7010008B70100088F
:10017000B7010008B7010008B7010008B70100087F
:10018000B7010008B7010008DFF80CD000F052FA00
:1001900000480047454A000800B101200648804752
:1001A00006480047FEE7FEE7FEE7FEE7FEE7FEE75C
:1001B000FEE7FEE7FEE7FEE72132000889010008BE
:1001C000D2B201E000F8012B491EFBD27047002299
:1001D000F6E710B513460A4604461946FFF7F0FF46
:1001E000204610BD30B505462A460B4612F8010BD5
:1001F00013F8014B08B1A042F8D01CB1002802D07E
:100200006D1CF1E7284630BD10B5002200E0521CFD
:10021000835C8C5CA34201D1002BF8D1D8B2E1B24F
:10022000401A10BD034611F8012B00F8012B002ADB
:10023000F9D11846704730B50B4601460020202200
:10024000012409E021FA02F59D4205D303FA02F5E3
:10025000491B04FA02F52844151EA2F10102F1DC43
:1002600030BD2DE9F05F0546002092469B4688464A
:100270000646814640241BE0284641464746224622
:1002800000F0F9F953465A46C01A914110D311466D
:100290001846224600F0E0F92D1A67EB01084F4698
:1002A00022460120002100F0D7F917EB00094E414A
:1002B000201EA4F10104DFDC484631462A464346AD
:1002C000BDE8F09F2DE9FE4F804681EA0300C00F94
:1002D0000C46009021F0004123F00045B8EB0200ED
:1002E000A94105D24046214690461C460B4602468F
:1002F00023F00040104347D0270DC7F30A00C3F393
:100300000A510290401A019040286BDAC3F313009F
:1003100040F4801B0098924620B10023D2EB030AE0
:1003200063EB0B0B01985946C0F14002504600F0B8
:1003300093F906460D4650465946019A00F0ABF92E
:1003400010EB08006141002487EA115284EAE77348
:100350001A4340D0009A62B3019A012A4FEA075229
:1003600015DC001B61EB02014FF0004202EA07526C
:10037000CDE90042001C41F5801132462B4600F0C9
:10038000ABF903B0BDE8F08F40462146F9E7001B0A
:1003900061EB0201001C41F5801300185B4120183D
:1003A000A2F5001747EB030140EAD570B6196D417D
:1003B00011E06D084FEA360645EAC0754FEA07526C
:1003C000001B61EB0201001C41F5801149084FEA56
:1003D00030000019514132462B4603B0BDE8F04FC2
:1003E00000F06BB90098012240000023D0EB02021C
:1003F00063EBE073009821464FEAE074B8EB00002D
:1004000061EB0401E9E783F000435BE781F0004121
:1004100058E72DE9FE4F81EA030404F0004421F07F
:10042000004100944FF0000B23F0004350EA010418
:100430005ED052EA03045BD0C3F30A54C1F30A55F9
:100440002C44A4F2F3340194A0FB0254C1F3130131
:1004500041F48011C3F3130343F4801301FB0244FE
:1004600000FB034E840A970A44EA815447EA835703
:10047000A4FB076802958D0A05FB07854FEA932CBC
:1004800004FB0C542705029D4FEA065847EA16372D
:10049000B5EB08056EEB070C870E920E47EA811745
:1004A00042EA8312A7FB0201B6EB0B0164EB0004E6
:1004B0002B0D43EA0C335E1844EB1C50DA465146D0
:1004C000E7FB0201C5F313044FEA0B3343EA14536D
:1004D0004FEA0432019C43EA0603A4F10C0402949F
:1004E000009CCDE900B400F0F7F803B0BDE8F08F50
:1004F00000200146F9E72DE9F04D81EA030404F0FC
:10050000004B21F0004514464FF0000A23F0004153
:1005100050EA050220D054EA01021DD0C5F30A5763
:100520000246C5F31303C1F31300C1F30A5640F4A6
:10053000801543F48013A7EB0608101BD64608F27B
:10054000FD3873EB050002D308F1010801E09218B1
:100550005B41B8F1000F03DA00200146BDE8F08DE1
:1005600000204FF48011064684460EE0171B73EB03
:10057000050705D3121B63EB050306434CEA010C88
:1005800049084FEA300092185B4150EA0107EDD16B
:1005900052EA030012D082EA040083EA050108430C
:1005A00005D0101BAB4106D20122002306E0002239
:1005B0004FF0004302E06FF0010253101AEB060007
:1005C0004CEB085110EB0A0041EB0B01BDE8F04D7C
:1005D00000F073B8C1F30A52C1F3130140F2FF33C4
:1005E00041F480119A4202DA00200146704740F23D
:1005F00033439A42A2F2334202DC524200F03BB84B
:1006000000F02AB830B5041E71F1000404DB4FF08D
:100610000044404264EB0101141E73F1000405DB49
:100620001C464FF00043524263EB0403994208BF5B
:10063000904230BD064C074D06E0E06840F00103F3
:1006400094E8070098471034AC42F6D3FFF7A0FDBA
:10065000ACC40008CCC40008202A04DB203A00FA0D
:1006600002F1002070479140C2F1200320FA03F309
:10067000194390407047202A04DB203A21FA02F007
:100680000021704721FA02F3D040C2F120029140CC
:10069000084319467047202A06DBCB17203A41FA57
:1006A00002F043EAE07306E041FA02F3D040C2F1FF
:1006B0002002914008431946704710B5141E73F18B
:1006C000000408DA401C41F1000192185B411A4312
:1006D00001D120F0010010BD2DE9F04D92469B465E
:1006E00011B1B1FA81F202E0B0FA80F22032904604
:1006F000FFF7B2FF04460F4640EA0A0041EA0B0149
:1007000053465A46084313D0114653EA010019D004
:10071000C8F140025046FFF7AEFF05460E46504670
:1007200059464246FFF798FF084305D0012004E0F0
:1007300020463946BDE8F08D0020054346EAE076C4
:100740002C4337430A986305E40AA0EB0800002213
:10075000FD0A44EA47540A3002D500200146E9E781
:10076000010510196941DDE9084500196941BDE835
:10077000F04DA2E710B547F6FF7000F02DF80446E3
:10078000552C01D1002010BD552147F6FF7000F017
:100790004EF847F6FF7000F01FF80446552C01D1C3
:1007A0000020F0E70120EEE71CB500F013FCFFF796
:1007B000E1FF48B905A018210B469022CDE90010B1
:1007C0003C211E2001F040FA1CBD0000323463328F
:1007D0003536204F4B21000070B50446002600F04E
:1007E000B3FCA02000F074FC00F0FCFC201200F030
:1007F0006FFC00F0F7FC2546E11704EB11610912CC
:10080000A4EB0121C8B200F063FC00F0EBFC00F0A7
:100810009BFCA12000F05CFC00F0E4FC00F028FC54
:10082000064600F0FBFB00F0B5FC304670BD70B52D
:1008300004460E4600F088FCA02000F049FC00F0C1
:10084000D1FC201200F044FC00F0CCFC2546E1175E
:1008500004EB11610912A4EB0121C8B200F038FCCD
:1008600000F0C0FCF0B200F033FC00F0BBFC00F084
:1008700091FC0A2003F042FF70BD00002DE9FC410D
:100880000027EAE0052F2DD2DFE807F0032D57857A
:10089000A800681CC5B273A00C210B467822CDE9D4
:1008A00000109121002001F0CFF901F0CEFB0446A9
:1008B000ACB9012001F0A6FB044664B96FA00C217D
:1008C0000B467822CDE900109121002001F0BCF9FF
:1008D0000025012706E0204602F060FC02E02046E9
:1008E00002F05CFCA7E0681CC5B269A00C210B46B5
:1008F0007822CDE900109121002001F0A5F901F046
:10090000A4FB0446ACB9022001F07CFB044664B9A8
:100910005AA00C210B467822CDE90010912100202D
:1009200001F092F90025022706E0204602F036FC8D
:1009300002E0204602F032FC7DE05AA00C210B467A
:100940007822CDE900109121002001F07DF901F01D
:10095000D9FB04465CB959A00C210B467822CDE99D
:1009600000109121002001F06FF903270EE059A03B
:100970000C210B467822CDE900109121002001F0D6
:1009800063F9204602F00AFC002500274FF4966028
:1009900003F0B4FE4FE055A00C210B467822CDE9C0
:1009A00000109121002001F04FF901F041FC0446B4
:1009B0005CB955A00C210B467822CDE9001091219D
:1009C000002001F041F9042703E00027204602F04F
:1009D000E5FB4FF4966003F091FE2CE0514800884F
:1009E000401C86B250480088B0420ADA4FA00C2161
:1009F0000B467822CDE900109121002001F024F966
:100A000019E03146022001F091FC044674B94DA072
:100A10000C210B467822CDE900109121002001F035
:100A200013F9404801F0B2FCBDE8FC8100272046E4
:100A300002F0B4FB00BF00BF4FF47A7003F05EFE1B
:100A4000052D0AD145A00C210B467822CDE90010D6
:100A50009121002001F0F8F800E013E700BF00BF8B
:100A6000E2E70000706C65617365207072657373F6
:100A700020202020202020202000000066696E67B2
:100A800065727072696E74206F6B202020200000E8
:100A9000707265737320616761696E202020202069
:100AA00020200000436F6D706172696E6720202006
:100AB000202020202020202020200000436F6D7067
:100AC00061726564206F6B20202020202020202070
:100AD00000000000436F6D7061726564206661699B
:100AE0006C642020202020202020200047656E6597
:100AF000726174696E672074656D706C61746520D5
:100B0000202020202000000047656E657261746916
:100B10006E672074656D706C617465206F6B20204A
:100B2000200000001A0000209400002074656D7001
:100B30006C6174652069732066756C6C20202020C0
:100B400020000000736176652066696E67657270CB
:100B500072696E74206F6B202000000074696D65EF
:100B60006F7574202020202020202020202020208D
:100B70000000000070B5054605F0010058B11420D2
:100B800002F0C4F8044604F0030040B90321142025
:100B900002F07FFA03E00321142000F055F870BD45
:100BA00000BFFEE72DE9F0410746884615460421BF
:100BB000052000F049F80021012002F045FE8021C7
:100BC0000A2002F066FA002405E0395D092002F0EF
:100BD0003BFE601CC4B24445F7DB0321012002F058
:100BE00033FEFF2400BF052002F090F80646601E89
:100BF000C4B21CB106F004000028F4D0222002F098
:100C000085F82870212002F081F86870BDE8F08135
:100C100038B504460F2C13D10A480078401C094906
:100C2000087008460078022801DD002008704FF6A1
:100C3000FF70A023782264210090002000F09EFD28
:100C400038BD00002100002070B505460C46002686
:100C5000284602F05BF8064626EA0401284602F020
:100C6000F3FD70BD70470000014621293ED2DFE848
:100C700001F011131517191B1D1F212325273D3DB9
:100C80003D3D292B3D3D3D2D3D3D2F313335373DFC
:100C90003D393B0017A02BE017A029E01AA027E060
:100CA0001EA025E022A023E029A021E030A01FE023
:100CB00036A01DE043A01BE045A019E048A017E0C6
:100CC0004BA000BF53A013E056A011E059A00FE0C5
:100CD00061A00DE064A00BE066A009E069A007E058
:100CE0006DA005E071A003E073A001E075A000BF56
:100CF00000BF70474F4B0000CAFDBEDDB0FCBDD346
:100D0000CAD5B4EDCEF30000B4ABB8D0C6F7C9CFA6
:100D1000C3BBD3D0CAD6D6B800000000C2BCC8EB53
:100D2000D6B8CEC6CDBCCFF1CAA7B0DC000000005B
:100D3000D6B8CEC6CDBCCFF1CCABB8C9A1A2CCAB96
:100D4000B5ADB6F8C9FAB2BBB3C9CCD8D5F7000077
:100D5000D6B8CEC6CDBCCFF1CCABCAAAA1A2CCAB83
:100D6000BAFDB6F8C9FAB2BBB3C9CCD8D5F7000002
:100D7000D6B8CEC6CDBCCFF1CCABC2D2B6F8C9FA8C
:100D8000B2BBB3C9CCD8D5F700000000D6B8CEC6E8
:100D9000CDBCCFF1D5FDB3A3A3ACB5ABCCD8D5F7C3
:100DA000B5E3CCABC9D9A3A8BBF2C3E6BBFDCCABC2
:100DB000D0A1A3A9B6F8C9FAB2BBB3C9CCD8D5F7AC
:100DC00000000000D6B8CEC6B2BBC6A5C5E4000080
:100DD000C3BBCBD1CBF7B5BDD6B8CEC600000000A3
:100DE000CCD8D5F7BACFB2A2CAA7B0DC00000000B9
:100DF000B7C3CECAD6B8CEC6BFE2CAB1B5D8D6B789
:100E0000D0F2BAC5B3ACB3F6D6B8CEC6BFE2B7B669
:100E1000CEA70000C9BEB3FDC4A3B0E5CAA7B0DC2D
:100E200000000000C7E5BFD5D6B8CEC6BFE2CAA74E
:100E3000B0DC0000BBBAB3E5C7F8C4DAC3BBD3D09B
:100E4000D3D0D0A7D4ADCABCCDBCB6F8C9FAB2BB1A
:100E5000B3C9CDBCCFF10000B6C1D0B420464C41DF
:100E6000534820B3F6B4ED00CEB4B6A8D2E5B4ED45
:100E7000CEF30000CEDED0A7BCC4B4E6C6F7BAC538
:100E800000000000BCC4B4E6C6F7C9E8B6A8C4DADE
:100E9000C8DDB4EDCEF30000BCC7CAC2B1BED2B348
:100EA000C2EBD6B8B6A8B4EDCEF30000D6B8CEC625
:100EB000BFE2C2FA00000000B5D8D6B7B4EDCEF359
:100EC00000000000C4A3BFE9B7B5BBD8C8B7C8CFFE
:100ED000C2EBD3D0CEF30000F0B50A4600210023C8
:100EE000002400BF3DE0012505FA01F3156805EA7D
:100EF00003049C4234D105684F000326BE40B5432D
:100F0000056015794E00B5400668354305601579D2
:100F1000012D02D01579022D16D185684F000326C8
:100F2000BE40B543856055794E00B540866835436F
:100F30008560456801268E40B543456045689679D1
:100F40008E40B6B235434560C5684F000326BE40AB
:100F5000B543C560D5794E00B540C6683543C56018
:100F6000491C1029BFD3F0BDF0B5002300244D0764
:100F7000ED0E02FA05F3CE1000F1200555F82650CB
:100F80004E07F70E0F26BE40B543CF1000F12006E6
:100F900046F82750CE1000F1200555F8265045EAB6
:100FA0000304CE1000F1200545F82640F0BD0146AF
:100FB000086980B270470246002013690B400BB1EC
:100FC000012000E000207047418370470183704793
:100FD00000BFFEE71CB50121022001F0D3FDC020B7
:100FE000009001208DF8040000208DF806000320F9
:100FF0008DF8050001208DF8070069460448FFF7C9
:101000006BFF0120034908600349C1F89C021CBD25
:1010100000040240988240420080404210B5002007
:1010200010490860022003F085FB0F48006820F497
:1010300040400D4908600846006840F48040086060
:1010400001200A49C1F89C02022003F073FB012031
:1010500004490860022003F06DFB00200349C1F839
:10106000980210BD98824042000402400080404235
:1010700070B500241348006820F44040114908600E
:10108000084600680860002517E000200E49086047
:10109000022003F04FFB01200C49C1F898026006C2
:1010A000040E80210748FFF786FF08B1601CC4B218
:1010B000012003F03FFB681CC5B2082DE5DB20468C
:1010C00070BD00000004024098824042008040420F
:1010D00070B504461948006820F44040174908607C
:1010E0000846006840F48040086000201449086009
:1010F00000251FE004F0800020B180210F48FFF799
:1011000065FF03E080210D48FFF75EFF6006040ED7
:10111000022003F00FFB012009490860022003F0C0
:1011200009FB00200749C1F89802022003F002FBE6
:10113000681CC5B2082DDDDB70BD00000004024054
:10114000988240420080404210B51048006820F468
:1011500040400E4908600846006840F4804008603E
:1011600080210A48FFF732FF01200949086000BFCB
:1011700080210648FFF71FFF08B9012010BD80211C
:101180000248FFF721FF00BF0020F7E700040240FC
:101190009882404210B51048006820F440400E4943
:1011A00008600846006840F48040086000200B4951
:1011B00008600B49C1F89C02012003F0BBFA012032
:1011C0000649086003F0B6FA01200549C1F89C02FF
:1011D000042003F0AFFA10BD0004024098824042A0
:1011E0000080404210B500240020144908601448D3
:1011F000006820F440401249086008460068086012
:1012000001201049C1F89C0203F094FA01200B4917
:10121000086003F08FFA07E0601CC4B2FA2C03DD0B
:10122000FFF7B8FF012010BD80210548FFF7C3FE7E
:101230000028F1D10149086000BFF4E798824042DC
:1012400000040240008040427CB50546EF208DF846
:10125000000001208DF801001A480068000E8DF88A
:10126000020018480068000C8DF80300154800883B
:10127000000A8DF80400134800788DF80500072057
:101280008DF8060000208DF807000F49088012E055
:10129000012003F033FA0C48008800F4004050B1FC
:1012A00000200949088069460848FEF79BFF04466C
:1012B0000CB120467CBD681E80B20500E8D100BF9D
:1012C000F8E70000380000203C0000203002002039
:1012D0001CB5044600200C2102232246CDE9001053
:1012E000822100F0E4FC112C10D00A2C0FDAC24845
:1012F000007804280BDA04F13000C049BE4A1278A5
:101300008854BD480078401CBB49087069E10A2C2C
:101310000AD1B9480078401EB74908702020B74963
:10132000B54A127888545CE10B2C7DD1B448007822
:1013300050BBB448007838BBB348007820BBAF49F5
:10134000B24804F033F968B9B1A00C210B467822F9
:10135000CDE900109121002000F076FC0120B04979
:10136000087009E0AFA00C210B467822CDE90010EF
:101370009121002000F068FC00209F4908709F48E0
:101380000021016001712CE19D480078012837D1CE
:101390009A499E4804F00AF9F8B9A6A00C210B4618
:1013A0007822CDE900109121002000F04DFCA6A08C
:1013B0000C210B467822CDE900107321002000F0AB
:1013C00043FC00208C490870202204218B48FEF742
:1013D000F7FE02208A49087003E1A1A00C210B4608
:1013E0007822CDE900109121002000F02DFC002092
:1013F00081490870202204218048FEF7E1FEF0E0D8
:101400007F48007802281AD17C498048FEF70AFFFD
:1014100098A00C210B467822CDE900107321002002
:1014200000F012FC002000E0A0E07549087072494D
:101430000870202204217148FEF7C2FED1E07148F5
:101440000078012837D16D49704804F0AFF8F8B939
:101450008EA00C210B467822CDE9001073210020CC
:1014600000F0F2FB8FA00C210B467822CDE9001092
:101470009121002000F0E8FB00205F490870202245
:1014800004215E48FEF79CFE02205E490870A8E039
:1014900073A00C210B467822CDE900109121002089
:1014A00000F0D2FB00205449087020220421534848
:1014B000FEF786FE95E054480078012839D14F495F
:1014C000524804F073F808BB7CA00C210B4678222C
:1014D000CDE900109121002000F0B6FB01F084F965
:1014E000002045490870202204214448FEF768FE88
:1014F00002204549087076A00C210B467822CDE9E0
:1015000000109121002000F09FFB6AE054A00C2104
:101510000B467822CDE900109121002000F094FBC9
:10152000002035490870202204213448FEF748FE87
:1015300057E035480078022853D101F0BDF950B981
:1015400068A00C210B467822CDE9001091210020E3
:1015500000F07AFB45E069A00C210B467822CDE92A
:1015600000109121002000F06FFB3AE00F2C14D105
:1015700067480078401C66490870084600780228D1
:1015800001DD002008704FF6FF70A023782264214F
:101590000090002000F0F2F823E00E2C14D101207E
:1015A0001949087000201649087016490870124938
:1015B000087058A00C210B467822CDE90010732149
:1015C000002000F041FB0CE00C2C03D10120564917
:1015D000087006E00D2C03D100205349087000E08C
:1015E00000BF06480C210B461822CDE900108221CD
:1015F0003C2000F029FB1CBD490000201C000020FD
:10160000270000202C0000203100002028000020AE
:101610006F70656E20646F6F722020202020200084
:101620003200002070617373776F7264206572728C
:101630006F7220006D6F6469662070617373776FDD
:101640007264202020000000696E707574206E6541
:10165000772070617373776F726420202000000020
:1016600070617373776F7264206572726F7220207D
:10167000200000006D6F646966202020737563632D
:101680006573732121212020200000006164642003
:1016900066696E676572202020202020202020208F
:1016A00020000000706C6561736520707265737353
:1016B00020202020202020202000000061646420C1
:1016C00069632063617264202020202000000000F4
:1016D000706C6561736520656E74657220616E67FC
:1016E00061696E00616464206963206361726420D3
:1016F0007375636365737320000000006164642088
:1017000069632063617264206661696C6400000033
:101710002100002061646420696320636172642C8D
:10172000696E7075742020003300002070B5064685
:10173000002409480588408845430021084600F0F8
:1017400067F900F065FB00BF03E0304600F00EFBD8
:10175000641CAC42F9D370BDC003002070B50446D0
:101760000D462946204600F053F900F051FB02488F
:10177000008800F0FBFA70BD440000202DE9F05F06
:1017800005460E4617469846DDF828A04FF0000B98
:10179000781B401C1FFA80FB344613E02146284684
:1017A00000F036F900F034FB4FF0000906E0504637
:1017B00000F0DCFA09F101001FFA80F9D945F6DBE7
:1017C000601C84B24445E9DDBDE8F09F10B50020FF
:1017D00085490860322002F091FF01208349C1F859
:1017E0008402322002F08AFF20218148FFF7ECFBBF
:1017F000142002F083FF20217D48FFF7E7FB14202F
:1018000002F07CFF80207B490880A02048802C20AB
:1018100088712A20C8712B200872112000F0DEFA8E
:10182000782002F06BFFB12000F0D8FA052000F01C
:10183000BBFA3C2000F0B8FA3C2000F0B5FAB22028
:1018400000F0CCFA052000F0AFFA3C2000F0ACFA32
:101850003C2000F0A9FAB32000F0C0FA052000F007
:10186000A3FA3C2000F0A0FA3C2000F09DFA0520ED
:1018700000F09AFA3C2000F097FA3C2000F094FA2D
:10188000B42000F0ABFA032000F08EFAC02000F084
:10189000A5FA282000F088FA082000F085FA042034
:1018A00000F082FAC12000F099FAC02000F07CFA22
:1018B000C22000F093FA0D2000F076FA002000F02C
:1018C00073FAC32000F08AFA8D2000F06DFA2A2006
:1018D00000F06AFAC42000F081FA8D2000F064FA6A
:1018E000EE2000F061FAC52000F078FA1A2000F02E
:1018F0005BFA362000F072FAC02000F055FAE020C2
:1019000000F06CFA042000F04FFA222000F04CFAAC
:10191000072000F049FA0A2000F046FA2E2000F0D5
:1019200043FA302000F040FA252000F03DFA2A204A
:1019300000F03AFA282000F037FA262000F034FAB6
:101940002E2000F031FA3A2000F02EFA002000F0AC
:101950002BFA012000F028FA032000F025FA1320CA
:1019600000F022FAE12000F039FA042000F01CFA1D
:10197000162000F019FA062000F016FA0D2000F0EB
:1019800013FA2D2000F010FA262000F00DFA232083
:1019900000F00AFA272000F007FA272000F004FAE6
:1019A000252000F001FA2D2000F0FEF93B2000F088
:1019B000FBF9002000F0F8F9012000F0F5F904200F
:1019C00000F0F2F9132000F0EFF93A2000F006FAE7
:1019D000052000F0E9F9292000F000FA4FF6FF7029
:1019E000FFF7A4FE10BD0000840240420000404208
:1019F00000080240C003002010B50246012000E0AC
:101A000050430B00A1F10104E1B2F9D110BD000077
:101A100070B504460D460A49C87900F0DFF9201276
:101A200000F0C2F9E0B200F0BFF90549087A00F011
:101A3000D5F9281200F0B8F9E8B200F0B5F970BD98
:101A4000C00300202DE9F84F81460D4617461E467B
:101A500000955348B0F80080A7F12000C7B20A985B
:101A6000002850D100244BE00C2E07D107EB470093
:101A70004C4901EB800010F804A004E04A4800EB58
:101A8000071010F804A04FF0000B33E00AF08000BC
:101A900018B14348A0F8008003E04448008840495A
:101AA000088029464846FFF759FE4FEA4A604FEA48
:101AB000106A681C85B23E484088A84204DC384859
:101AC000A0F80080BDE8F88F0098281AB0420DD128
:101AD000009D09F101001FFA80F93548008848454A
:101AE00003DC2F48A0F80080ECE706E00BF10100D2
:101AF00000F0FF0BBBF1080FC8DB00BF601CC4B2D5
:101B0000B442B1DB46E0002442E00C2E07D107EBE3
:101B10004700244901EB800010F804A004E02248AB
:101B200000EB071010F804A04FF0000B2AE00AF0B9
:101B3000800018B129464846FFF710FE4FEA4A6078
:101B40004FEA106A681C85B219484088A84203DC35
:101B50001348A0F80080B5E70098281AB0420DD1CC
:101B6000009D09F101001FFA80F9114800884845DD
:101B700003DC0B48A0F80080A4E706E00BF10100AD
:101B800000F0FF0BBBF1080FD1DB00BF601CC4B23B
:101B9000B442BADB0248A0F8008000BF92E7000020
:101BA00044000020246A0008986E000846000020C7
:101BB000C00300202DE9FF4F81B0074691461E4625
:101BC0000E9D4FF0000A002439E0301B401EC1B2C8
:101BD0000A20FFF711FFB9FBF0F00A21B0FBF1F288
:101BE00001FB1208BAF1000F16D1701EA04213DDDE
:101BF000B8F1000F0ED10020AB4605EBDB714910A8
:101C000001FB0471009088B22B4620220299FFF755
:101C100019FF12E04FF0010A0020AB4605EBDB7123
:101C2000491001FB0471009088B208F13001CAB27A
:101C30002B460299FFF706FF00BF601CC4B2B442F6
:101C4000C3DB05B0BDE8F08F2DE9F84F04460D4623
:101C500090469946DDE90A6704F0FF0A08EB0400A4
:101C60001FFA80F809EB05001FFA80F916E04445D9
:101C700002DB5446A81985B24D4500DB14E0002074
:101C800000903A78334629462046FFF7DBFE30467F
:101C900006EBD07104EB61018CB27F1C38787E2892
:101CA00002DC38782028E2DA00BFBDE8F88F2DE9A1
:101CB000FF4F83B0064692461F46DDE910480020DC
:101CC000029000254DE0781B401EC1B20A20FFF7AC
:101CD00093FEBAFBF0F00A21B0FBF1F201FB12090E
:101CE000029850BB781EA84227DDB9F1000F22D11F
:101CF00008F0800078B108F00100A34604EBDB7126
:101D0000491001FB0561009088B2234630220499F6
:101D1000FFF798FE0EE008F00100A34604EBDB712C
:101D2000491001FB0561009088B2234620220499E6
:101D3000FFF788FE13E00120029008F00100A3469F
:101D400004EBDB71491001FB0561009088B209F1D9
:101D50003001CAB223460499FFF774FE00BF681C25
:101D6000C5B2BD42AFDB07B0BDE8F08F10B5044689
:101D700001210A48FFF728F910210948FFF726F941
:101D80002112084801F032F9E1B2064801F02EF9BB
:101D900001210248FFF71AF910BD000000000240BF
:101DA000000802400030014010B5044601210848F7
:101DB000FFF70AF910210748FFF708F921460648FE
:101DC00001F014F901210248FFF700F910BD0000ED
:101DD00000000240000802400030014010B50446F7
:101DE00001210848FFF7F0F810210748FFF7ECF849
:101DF000E1B2064801F0FAF801210248FFF7E6F8DF
:101E000010BD000000000240000802400030014008
:101E100010B502498879FFF7E1FF10BDC00300202B
:101E200010B500F043F804460120FEF7A3FE05209C
:101E300002F064FC0020FEF79DFE08210846FEF734
:101E400003FF3D21112001F0FFFC8621172001F046
:101E5000FBFC7F21262001F0F7FC1E212D2001F044
:101E6000F3FC00212C2001F0EFFC8D212A2001F051
:101E7000EBFC3E212B2001F0E7FC022002F03EFCAF
:101E80002A2000F043FF0446052002F037FC012021
:101E9000FEF770FE2A2000F039FF04462B2000F0E8
:101EA00035FF0446642002F029FC10BD10B5012066
:101EB000264908600A2002F021FC00202449C1F8CC
:101EC000AC020A2002F01AFC0120204908600A2016
:101ED00002F014FC0F21012001F0B6FC0F210120BB
:101EE00001F0B2FCC82002F009FC3D21112001F0F4
:101EF000ABFC052002F002FC1E212D2001F0A4FC09
:101F0000052002F0FBFB00212C2001F09DFC0520A8
:101F100002F0F4FB8D212A2001F096FC052002F04E
:101F2000EDFB7F21262001F08FFC052002F0E6FB6F
:101F30003E212B2001F088FC052002F0DFFB402130
:101F4000152001F081FC002010BD0000AC82404251
:101F50000080404200BF0549098801F04001002986
:101F6000F9D00249091D0880704700000044004074
:101F700000BFFEE77047000070B5002100230F226C
:101F8000C4781CB3174C246804F4E064C4F5E0641E
:101F9000C4F30721C1F10404E3B20A4144789C4030
:101FA000E1B28478144021430C07210E0E4C0578D1
:101FB0006155047804F01F050124AC4005786D11CB
:101FC000AD0005F1E025C5F8004109E0047804F012
:101FD0001F050124AC40054D0678761145F82640D2
:101FE00070BD00000CED00E000E400E080E100E0E6
:101FF00002490143024A1160704700000000FA05DF
:102000000CED00E02DE9F041054601F02AF800F062
:10201000FFFF012001F01FF8042001F02AF8022040
:1020200001F031F82846FFF795FFEF1D384601F023
:1020300009F84FF4FA60FFF707F906460EB1747A13
:1020400000E0FF242046BDE8F08170B501F009F8FA
:1020500000F0DEFF012000F0FEFF032001F009F890
:10206000012001F010F80526304600F0EBFF4FF498
:10207000FA60FFF7E9F805460DB16C7A00E0FF243D
:10208000204670BD10B5044600F0EBFF00F0C0FF25
:102090000120FFF75FFF0020FFF75CFF0020FFF744
:1020A00059FFC82002F02AFB1448008800F40040C1
:1020B00008B313480078EF281AD111484078012856
:1020C00016D10F488079072812D10D488078000674
:1020D0000B49C97800EB01400949097900EB01205F
:1020E000074949790844206000200449088010BD50
:1020F0000020024908800120F9E700003C00002090
:102100003002002070B500F0ACFF00F081FF01202C
:1021100000F0A1FF032000F0ACFF032000F0B3FFAC
:102120000726304600F08EFF4FF4FA60FFF78CF878
:1021300005460DB16C7A00E0FF24204670BD00001A
:102140002DE9F041054600F08CFF00F061FF012011
:1021500000F081FF032000F08CFF0F2000F093FFC0
:102160001327384600F06EFF4FF47A70FFF76CF8D3
:102170000446BCB1667AE07BA17B00EB012028809D
:10218000607CA870A07C0006E17C00EB0140217D12
:1021900000EB0120617D08446860E07D2872607E6C
:1021A000687200E0FF26A6B929880FA001F06CFB39
:1021B000A97813A001F068FB15A0696801F064FB21
:1021C000687A4FF4165210FB02F114A001F05CFB88
:1021D00007E03046FEF748FD8046414612A001F078
:1021E00053FB3046BDE8F0810D0AC4A3BFE9D7EE2A
:1021F000B4F3D6B8CEC6C8DDC1BF3D25640000002B
:102200000D0AB6D4B1C8B5C8BCB63D2564000000FF
:102210000D0AB5D8D6B73D25780000000D0AB2A842
:10222000CCD8C2CA3D2564000D0A25730000000009
:1022300070B500F016FF00F0EBFE012000F00BFF80
:10224000032000F016FF052000F01DFF0926304690
:1022500000F0F8FE4FF4FA60FEF7F6FF05460DB108
:102260006C7A00E0FF24204670BD2DE9F0478146DE
:102270000D4616461F4600F0F4FE00F0C9FE012090
:1022800000F0E9FE082000F0F4FE042000F0FBFE60
:102290004846FFF75FFE2812FFF75CFEE8B2FFF743
:1022A00059FE3012FFF756FEF0B2FFF753FE09F168
:1022B0000D0000EB2520E9B2084400EB2620F1B226
:1022C00000EB010A504600F0BDFE4FF4FA60FEF745
:1022D000BBFF044664B194F80980E07AA17A00EB70
:1022E00001203880607B217B00EB0120788001E0B9
:1022F0004FF0FF084046BDE8F08700001CB5012103
:10230000022000F03FFC0120009000208DF8040026
:1023100002208DF8070003208DF805006946024869
:10232000FEF7DAFD1CBD0000000402402DE9F0417B
:1023300006460C4600F095FE00F06AFE012000F013
:102340008AFE062000F095FE062000F09CFE304636
:10235000FFF700FE2012FFF7FDFDE0B2FFF7FAFDE8
:1023600006F10D0000EB2420E1B200EB010840462D
:1023700000F068FE4FF4FA60FEF766FF07460FB103
:102380007D7A00E0FF252846BDE8F0812DE9F04187
:10239000064600F066FE00F03BFE012000F05BFE0A
:1023A000032000F066FE1D2000F06DFE2127384658
:1023B00000F048FE4FF4FA60FEF746FF044634B1E1
:1023C000657AE07AA17A00EB0120308000E0FF25F9
:1023D0003DB9E07AA27A00EB022107A001F054FA9D
:1023E00007E02846FEF740FC8046414607A001F082
:1023F0004BFA2846BDE8F0810D0AD3D0D0A7D6B855
:10240000CEC6B8F6CAFD3D25640000000D0A25734E
:1024100000000000F0B587B00546002708210846F7
:10242000FEF712FC00210D2001F00EFA80210E2093
:10243000FEF70AFC93208DF8040020208DF805009B
:1024400006A801AB022201A900900C2000F052F86E
:10245000064686B9002407E001A8005D285501A8BA
:10246000005D4740601CC4B2042CF5DB01A8005D90
:10247000B84200D0FE2680210E2000F00AFE304631
:1024800007B0F0BD2DE9F04387B006460F469046F1
:1024900099468DF804608DF80570002406E018F860
:1024A000041001AAA01C1154601CC4B2062CF6DB57
:1024B000002407E019F8041001AA04F108001154DF
:1024C000601CC4B2062CF5DB06A801AB0C2201A9E6
:1024D00000900E2000F00EF805462DB9082000F0FF
:1024E00015FC00F0080000B9FE25284607B0BDE83D
:1024F000F08300002DE9FE4F0646884691469A4635
:10250000DDF830B0FE2002900020019000900C2EEB
:1025100006D00E2E09D1122001901020009005E067
:10252000772001903020009000E000BF00BF0198AC
:1025300040F08001022001F087F980210420FEF79D
:1025400083FB0021012001F07FF980210A2000F0A7
:10255000A0FD002505E018F80510092001F074F928
:102560006D1C4D45F7D33146012001F06DF90C2E5D
:1025700003D180210D2000F08CFD2C4D00BF0420E4
:1025800000F0C4FB04466D1E35B104F0010018B91B
:10259000009820400028F2D080210D20FEF754FB47
:1025A000002D37D0062000F0B1FB00F01B0070BBFF
:1025B000002002900198204000F0010008B1FF20A7
:1025C00002900C2E26D10A2000F0A0FB04460C201D
:1025D00000F09CFB00F007072FB1601E07EBC00066
:1025E0008BF8000003E0E006000E8BF8000004B951
:1025F0000124122C00DD1224002505E0092000F042
:1026000085FB0AF805006D1CA542F7D302E0FFE741
:10261000FE20029080210C2000F03BFD00210120D3
:1026200001F012F90298BDE8FE8F0000A0860100BB
:10263000F0B587B005460E4630208DF804008DF8C1
:1026400005500DF10602022101A8FEF7ABFA06A81B
:1026500001AB042201A900900C20FFF74BFF0746B5
:102660006FB99DF81800902809D1002404E001A852
:10267000005D3055601CC4B2102CF8DB00E0FE2772
:10268000384607B0F0BD70B588B005460C46082145
:102690000846FEF7D9FA07210D2001F0D5F80321ED
:1026A000142000F0F6FC8DF8085007A802AB0122B8
:1026B00002A900900C20FFF71DFF064656B99DF8B1
:1026C0001C00102806D19DF8080020709DF8090014
:1026D000607000E0FE26304608B070BD70B588B06E
:1026E000054693208DF8080070208DF80900002021
:1026F0008DF80E0000240BE0295D02AAA01C1154E5
:102700009DF80E00295D48408DF80E00601CC4B293
:10271000042CF1DB0DF10F02072102A8FEF742FAAB
:1027200008210846FEF790FA07A802AB092202A981
:1027300000900C20FFF7DEFE06462EB99DF81C0027
:10274000182801D1002600E0FE26304608B070BDF2
:10275000F0B587B006460F46A0208DF804008DF82E
:1027600005600DF10602022101A8FEF71BFA06A87A
:1027700001AB042201A900900C20FFF7BBFE054627
:102780004DB99DF81800042805D19DF8040000F00B
:102790000F000A2800D0FE2515BB002404E0385D98
:1027A00001A90855601CC4B2102CF8DB05AA102141
:1027B00001A8FEF7F7F906A801AB122201A90090C3
:1027C0000C20FFF797FE05464DB99DF81800042828
:1027D00005D19DF8040000F00F000A2800D0FE2566
:1027E000284607B0F0BD70473EB502A95220FFF75A
:1027F0004AFF04462148FFF70DFE04461F48FFF735
:102800006DFF04461D4B1E4A02216020FFF73AFE71
:10281000044610211B48FDF7DAFCF4B90A2001F048
:102820006DFF19490220FFF793FF044654B917A022
:102830000C210B467822CDE9001091210020FFF7F2
:1028400003FA14E015A00C210B467822CDE9001004
:1028500091210020FFF7F8F909E014A00C210B46A4
:102860007822CDE9001091210020FFF7EDF94FF417
:10287000FA7001F043FF20463EBD00004C000020EE
:1028800057000020CA0300202D00002077726974D1
:1028900065207375636365737300000077726974F4
:1028A00065206661696C6420200000006E6F206303
:1028B00061726420200000001CB54E495220FFF7D1
:1028C000E2FE4D4908700846007800287ED14B484A
:1028D000FFF7A0FD484908704848FFF7FFFE46494A
:1028E000087008460078002871D10846007820B9A1
:1028F00020214348FEF76AFB03E020214048FEF711
:1029000063FB3E4B3F4A02216020FFF7BBFD3A4983
:10291000087010213C48FDF75AFC3B490220FFF7A4
:1029200087FE354908701021002002F06DFE3749FE
:1029300008603548C07834498978CDE900103248BC
:102940004378027832A13148006800F0ADFF1021D1
:10295000002002F059FE04463048C0782F4989789B
:10296000CDE900102D484378027829A1204600F0D7
:102970009BFF264801682046FDF746FC68B928A061
:102980000C210B467822CDE9001073213C20FFF783
:102990005BF90020184908700CE023A00C210B46BD
:1029A0007822CDE9001073213C20FFF74DF9FD207E
:1029B0001149087015480168002002F013FE00203C
:1029C00012490860214602F00DFE01E002E00EE02F
:1029D00000240CE020210A48FEF7F6FA4FF6FF70BB
:1029E00087237822732100900020FEF7C7FE02485B
:1029F00000781CBD540000206A0000204C0000201C
:102A00000010024057000020DA0300206C00002074
:102A10002564256425642564000000002D00002045
:102A20006F6B2020200000006661696C640000006C
:102A30003EB5002502A95220FFF725FE04462B488B
:102A4000FFF7E8FC04462948FFF748FE0446274BF9
:102A5000274A02216020FFF715FD04461021254872
:102A6000FDF7B5FB002C31D10A2001F047FE01E053
:102A7000681CC5B21F490220FFF76AFE08B10A2D83
:102A8000F6DB0A2D0BDD1CA00C210B467822CDE9CC
:102A9000001091210020FFF7D7F8FE203EBD54B969
:102AA00019A00C210B467822CDE9001091210020BD
:102AB000FFF7CAF814E010A00C210B467822CDE9EC
:102AC000001091210020FFF7BFF809E012A00C21AF
:102AD0000B467822CDE9001091210020FFF7B4F8D1
:102AE0004FF4FA7001F00AFE2046D7E74C000020B0
:102AF00057000020CA030020777269746520666160
:102B0000696C642020000000777269746520737519
:102B100063636573730000006E6F206361726420ED
:102B2000200000001CB510495220FFF7ACFD0F49F2
:102B300008700846007850B90DA00C210B46782289
:102B4000CDE9001073210020FFF77EF809E00BA00B
:102B50000C210B467822CDE9001073210020FFF7ED
:102B600073F8024800781CBD540000206900002062
:102B70006861766520636172640000006E6F206397
:102B80006172640029B1064A12680243044B1A605C
:102B900004E0034A12688243014B1A607047000048
:102BA0003038024029B1064A12680243044B1A60C9
:102BB00004E0034A12688243014B1A607047000028
:102BC0004038024029B1064A12680243044B1A6099
:102BD00004E0034A12688243014B1A607047000008
:102BE0002038024029B1064A12680243044B1A6099
:102BF00004E0034A12688243014B1A6070470000E8
:102C00004438024029B1064A12680243044B1A6054
:102C100004E0034A12688243014B1A6070470000C7
:102C200024380240F0B500210022002402250026AD
:102C30000223324F3F6807F00C0121B1042905D06F
:102C4000082937D105E02E4F076036E02D4F076089
:102C500033E02A4F3F1F3F68C7F38056274F3F1F7F
:102C60003F6807F03F036EB1264FB7FBF3F7DFF87D
:102C70008CC0ACF1040CDCF800C0CCF3881C07FB62
:102C80000CF40CE01E4FB7FBF3F7DFF870C0ACF1AB
:102C9000040CDCF800C0CCF3881C07FB0CF4174FC5
:102CA0003F1F3F68C7F301477F1C7D00B4FBF5F76A
:102CB000076002E0124F076000BF00BF0F4F3F6880
:102CC00007F0F0010909104F7A5C0768D7404760A8
:102CD0000A4F3F6807F4E051890A0B4F7A5C476856
:102CE000D7408760054F3F6807F46041490B064FA6
:102CF0007A5C4768D740C760F0BD000008380240E2
:102D00000024F40000127A000000002070B5044690
:102D1000002600200A4908607E2000EA440040F0B6
:102D200080052946074800F061F90021054800F0B8
:102D30005DF9064601200449C1F8A802304670BD7D
:102D4000A8824042003800400080404200B587B071
:102D500001210720FFF716FF01210803FFF742FFBB
:102D600001218803FFF71EFFE020059002208DF867
:102D7000180000208DF81A0003208DF8190001209A
:102D80008DF81B0005A94C48FEF7A6F8052207217F
:102D90004948FEF7E9F8052206214748FEF7E4F81E
:102DA000052211464448FEF7DFF801210803FFF72A
:102DB00029FF00214FF48050FFF724FF0020ADF8D9
:102DC00000004FF48270ADF802000020ADF804005E
:102DD0000220ADF806000120ADF808004002ADF871
:102DE0000A000820ADF80C000020ADF80E00072006
:102DF000ADF810006946314800F0DAF801212F489B
:102E000000F0CAF80220059001208DF8180000207B
:102E10008DF81A0003208DF8190001208DF81B0091
:102E200005A92548FEF758F802212348FEF7CEF8F9
:102E3000012005908DF8180000208DF81A0003205D
:102E40008DF8190001208DF81B0005A91A48FEF71E
:102E500043F801211848FEF7B7F81020059001202B
:102E60008DF8180000208DF81A0003208DF8190045
:102E700001208DF81B0005A91148FEF72DF810213F
:102E80000F48FEF7A1F82020059001208DF81800CA
:102E900000208DF81A0003208DF8190001208DF80C
:102EA0001B0005A90648FEF717F820210448FEF785
:102EB0008BF807B000BD0000000002400030014068
:102EC0000008024000B587B001210220FFF75AFE3A
:102ED00001218803FFF766FE4FF460400590022051
:102EE0008DF8180000208DF81A0003208DF81900C5
:102EF00001208DF81B0005A92548FDF7EDFF0522EF
:102F00000E212348FEF730F805220F212048FEF756
:102F10002BF805220D211E48FEF726F80020ADF8FB
:102F200000004FF48270ADF802000020ADF80400FC
:102F30000220ADF806000120ADF808004002ADF80F
:102F40000A002820ADF80C000020ADF80E00072084
:102F5000ADF8100069460F4800F02AF801210D482D
:102F600000F01AF840F20B40059001208DF818008F
:102F700000208DF81A0003208DF8190001208DF82B
:102F80001B0005A90248FDF7A7FF07B000BD000020
:102F9000000402400038004021B1028842F04002A3
:102FA000028004E002884FF6BF731A400280704727
:102FB00010B50022028802F441520B884C8823434A
:102FC0008C882343CC8823430C8923434C89234397
:102FD0008C892343CC8923431A430280838B4FF28D
:102FE000FF74234083830B8A038210BD024600BF17
:102FF000108900F002000028FAD0918100BF1089EA
:1030000000F001000028FAD09089C0B270477047E4
:1030100010B50B490968080EFEF79CFF08480068C8
:10302000C0F30740FEF796FF05480088C0F307206D
:10303000FEF790FF02490878FEF78CFF10BD0000F4
:103040003800002010B504462012FEF783FFE0B2DE
:10305000FEF780FF10BD10B504462046FEF77AFF4C
:1030600010BD10B5EF20FEF775FF0120FEF772FFCF
:1030700010BD10B50446C4F30720FEF76BFFE0B2A5
:10308000FEF768FF10BD10B504462046FEF762FF4C
:1030900010BD70B505460C4600262846FFF736FEE3
:1030A000064646EA0401284600F0CEFB70BD00004B
:1030B0000CB50020019000903448006840F4803046
:1030C0003249086000BF3148006800F400300090C9
:1030D0000198401C0190009818B90198B0F5A04FD4
:1030E000F1D12A48006800F4003010B101200090AE
:1030F00001E0002000900098012846D1234840308C
:10310000006840F080502149403108602048006844
:1031100040F440401E4908601C48083000681B49C4
:10312000083108600846006840F40040086008461E
:10313000006840F4A05008601648091F0860081F86
:10314000006840F08070091F086000BF0F480068E9
:1031500000F000700028F9D040F205700E490860B8
:103160000A480830006820F0030008490831086068
:103170000846006840F00200086000BF03480830BD
:10318000006800F00C000828F8D10CBD003802409F
:103190000070004008544007003C02407CB50546E2
:1031A0003021002002F030FA04462A460DA12046C4
:1031B00000F07AFB4FF6FF70A02378228221009066
:1031C0000020FEF7DBFA0C20034678228221CDE9AD
:1031D00000040020FEF738FD2146002002F002FA2C
:1031E00000247CBD6572726F7220636F6465203A43
:1031F00025640000042808D14FF0E021096941F05E
:1032000004014FF0E022116107E04FF0E02109696D
:1032100021F004014FF0E022116170477047000077
:1032200010B51548006840F4700013490860134851
:10323000006840F001001149086000200F49083182
:1032400008600E4800680E4908400C4908600D48A7
:10325000091D0860081F006820F48020091F08600D
:10326000002006490C310860FFF722FF4FF0006094
:1032700001498039086010BD88ED00E00038024047
:10328000FFFFF6FE1030002410B50121274800F0A2
:10329000D6F8002849D026480078401C24490870F8
:1032A000084600780A2190FBF1F201FB120018B9E0
:1032B000112401F0EBFA04461E48007818B92046A4
:1032C00002F0C0F906E01B480078012802D1204630
:1032D00002F078FB16480078642802DB00201449CD
:1032E00008701548007820B114480088401C134924
:1032F000088012480088B0F5FA7F08DB0F48008884
:10330000B0F57A7F03DA02200B49087009E00B4818
:103310000088B0F57A7F04DB002008490880064960
:1033200008700121014800F07BF810BD0004004046
:103330003E0000203300002032000020400000202A
:103340007FB505460C4601210220FFF72BFC0295B4
:10335000ADF804400020ADF80600ADF80C0001A95E
:103360000D4800F089F8012211460B4800F078F86A
:103370000121094800F057F81D208DF800000020B9
:103380008DF8010003208DF8020001208DF8030064
:103390006846FEF7F1FD7FBD0004004010B5012135
:1033A000094800F04CF868B10848008840F4004033
:1033B000064908800121044800F032F80021024843
:1033C00000F031F810BD0000001400403C00002067
:1033D0007FB505460C4601212020FFF7E3FB019550
:1033E000ADF800400020ADF80800ADF802006946D5
:1033F0000A4800F041F801221146084800F030F870
:1034000037208DF80C0001208DF80D008DF80E008E
:103410008DF80F0003A8FEF7AFFD7FBD001400403C
:10342000CA430282704721B1028842F00102028041
:1034300004E002884FF6FE731A400280704730B5F0
:103440000246002000230024158A05EA010395891D
:1034500005EA010413B10CB1012000E0002030BDE9
:103460001AB183890B43838102E083898B43838173
:10347000704741627047000000220288184B984252
:103480000ED0184B98420BD0B0F1804F08D0164B9D
:10349000984205D0154B984202D0154B984204D162
:1034A0004FF68F731A404B881A43124B984207D03D
:1034B000114B984204D04FF6FF431A400B891A4330
:1034C00002804B68C3620B880385054B984202D08B
:1034D000044B984201D18B7A038601238382704783
:1034E00000000140000401400004004000080040CA
:1034F000000C0040001000400014004010B50A48C5
:10350000008800F0080010B107488088C4B240F27B
:103510002551054800F0D6F820B140F22551024867
:1035200000F03CF810BD00000010014010B540F262
:103530002551164800F0C6F800B3144800F07CF995
:10354000C4B21348008800F40040B8B9104800889D
:10355000B0F5C87F13DA00210E48FFF78AFF0C4848
:10356000008818B901210B48FFF75DFF0848018862
:103570000088401C064A10800748445405E004486F
:10358000008840F400400249088010BD004400401B
:103590003C000020001400403002002010B5002242
:1035A000002340F66A14A14200D100BF0A12012490
:1035B0009440A3B2DC43048010BD21B1828942F45F
:1035C0000052828104E082894DF6FF731A408281A5
:1035D0007047000010B504463248844208D10121EA
:1035E0001020FFF70FFB00211020FFF70BFB57E027
:1035F0002D48844209D101214804FFF7E3FA002154
:103600004FF40030FFF7DEFA4AE02848844209D13F
:1036100001218804FFF7D6FA00214FF48020FFF73C
:10362000D1FA3DE02248844209D10121C804FFF7C4
:10363000C9FA00214FF40020FFF7C4FA30E01D481A
:10364000844209D101210805FFF7BCFA00214FF49B
:103650008010FFF7B7FA23E01748844208D1012110
:103660002020FFF7CFFA00212020FFF7CBFA17E048
:103670001248844209D101218807FFF7A3FA0021EB
:103680004FF08040FFF79EFA0AE00D48844207D1D0
:1036900001214005FFF796FA00216005FFF792FA35
:1036A00010BD0000001001400044004000480040F0
:1036B000004C0040005000400014014000780040E1
:1036C000007C004070B50246002400230025002045
:1036D00040F66A16B14200D100BFC1F3421501F0B5
:1036E0001F03012606FA03F3012D02D19689334008
:1036F00006E0022D02D1168A334001E0968A33405B
:103700000C12012606FA04F41688344013B10CB1E9
:10371000012000E0002070BDF0B503460024002623
:103720000025002040F66A17B94200D100BF1846B4
:10373000C1F3421401F01F06012707FA06F5012C18
:1037400001D10C3004E0022C01D1103000E0143023
:103750001AB107682F43076002E00768AF430760AC
:10376000F0BD00002DE9FF4705460E460024A146A6
:1037700000BFA046B08900B100BF2C8A24F4405499
:10378000F08804432C82AC8941F20C608443B088F9
:1037900031890843718908430443AC81AC8A24F41D
:1037A0004074B0890443AC826846FFF73BFA204876
:1037B000854202D01F48854202D1DDF80C9001E01D
:1037C000DDF80890A88900F4004040B109EBC90079
:1037D00000EB091031684900B0FBF1F707E009EB95
:1037E000C90000EB091031688900B0FBF1F76420D3
:1037F000B7FBF0F004012009642101FB1078A889CF
:1038000000F4004040B1322000EBC800B0FBF1F002
:1038100000F00700044308E0322000EB08106421A8
:10382000B0FBF1F000F00F0004432C81BDE8FF87EE
:10383000001001400014014001468888C0F30800D0
:10384000704700BFFEE7000070B504460D467E20BD
:1038500000EA440600200949086031460848FFF79D
:10386000C5FB29460648FFF7C1FB01200549C1F801
:10387000A802052000F042FF70BD0000A88240426F
:1038800000380040008040420FB4054B10B503A93A
:10389000044A029800F0DEF810BC5DF814FB00004A
:1038A0000D480008140000200FB4084B10B504A9FF
:1038B00002AA039800F0CEF8044602A9002000F006
:1038C00060FC204610BC5DF814FB0000834100083A
:1038D00002E008C8121F08C1002AFAD170477047D9
:1038E000002001E001C1121F002AFBD17047000037
:1038F0002DE9FF5FDDE90220010DDDF838B002435C
:1039000018D044F61050A1F2FF3141430D140F9826
:10391000012820D0A5EB0B00401C5FEA000A4FF005
:103920000004474EDFF81C91A046504616D5CAF158
:10393000000728E00F98012443A2012808D00021A5
:1039400000980F9BC0E90021C0E90243BDE8FF9F3A
:103950006FEA0B01F4E7CBF10000DEE7074612E067
:10396000F80707D02246334640464946FCF751FD4A
:10397000804689462246334610461946FCF749FDE3
:1039800004460E467F10002FEAD1DDE90201BAF1AC
:10399000000F42464B4602DAFCF73BFD01E0FCF724
:1039A000AAFD04460E460022284BFCF72BFE03D846
:1039B0004FF0FF30014607E00022254B20463146FC
:1039C000FCF780FCFCF706FE102409E0002C0ADB63
:1039D0000A220023FCF745FC019B30321A55641E75
:1039E00050EA0102F2D1641C019AC4F1110314449B
:1039F0000F9A012A03D0012208430DD10AE008439F
:103A000004D000204FF0110B0F9080E7A3EB0B05C3
:103A10006D1E0DE05B4504DD4FF0000205F1010570
:103A200004E003DA4FF00002A5F10105002AECD012
:103A300000980F99C0E90231C0E9004586E700000F
:103A4000000024400000F03F300000000000F04380
:103A50000000E03F2DE9FF4F95B09B4689460646A2
:103A600000250FE2252877D100242746F84A0121B6
:103A7000059400E0044316F8013F203B01FA03F0EF
:103A80001042F7D130782A2811D06FF02F03307808
:103A9000A0F13002092A16D8059A44F0020402EB7C
:103AA000820203EB42021044761C0590EFE759F8BE
:103AB000042B0592002A03DA504244F40054059086
:103AC00044F00204761C30782E2816D116F8010F27
:103AD00044F004042A280DD06FF02F023078A0F1B2
:103AE0003003092B09D807EB870302EB4303C71800
:103AF000761CF3E759F8047B761C30786C280FD0DD
:103B000006DC4C2817D068280DD06A2814D104E0B0
:103B1000742810D07A280FD10DE044F400140AE084
:103B200044F4801401E044F440147278824202D1DB
:103B300004F58014761C761C307866280BD013DCD4
:103B4000582877D009DC002875D04528F6D04628BB
:103B5000F4D047281AD19DE118E0632835D06428B5
:103B600079D0652812D195E1702873D008DC6728D8
:103B7000F1D069286FD06E280DD06F2806D1B5E03E
:103B800073282CD0752875D0782874D05A46179988
:103B900090476D1C75E1C4F30250022809D0032838
:103BA0000DD0D9F8001004280DD00D6009F10409DA
:103BB00067E1D9F80010EA17C1E90052F6E7D9F831
:103BC00000100D80F2E70D70F0E719F8041B8DF876
:103BD000001000208DF80100EA46012003E059F8AA
:103BE00004AB4FF0FF3061074FF0000102D40DE04D
:103BF00008F101018846B9420FDA8045F8DB1AF86E
:103C000008100029F4D108E008F10101884681423A
:103C1000FADB1AF808100029F6D105985B46A0EBEC
:103C2000080721463846179A00F094FA284400EB1A
:103C3000080507E04DE029E10DE01AF8010B5A46AE
:103C400017999047B8F10108F7D25B4621463846EC
:103C5000179A13E142E00A220092C4F302524FF095
:103C6000000A022A08D059F804CB032A4FEAEC7163
:103C70000AD00DE029E02AE009F1070121F007024E
:103C8000F2E802C1914609E00FFA8CFC4FEAEC71B0
:103C9000042A03D14FFA8CFC4FEAEC71002907DAB1
:103CA0000A460021DCF1000C61EB02012D2202E04A
:103CB000220504D52B228DF80420012203E0E2071F
:103CC00001D02022F7E7904659E00A2102E01022B5
:103CD0000DE010214FF0000A00910BE010224FF090
:103CE000000A44F004040827009203E008224FF081
:103CF000000A0092C4F30252022A05D059F804CBFC
:103D00000021032A08D009E009F1070121F0070288
:103D1000F2E802C1914605E01FFA8CFC042A01D1A9
:103D20000CF0FF0C4FF00008220728D5702806D0B1
:103D3000009B83F0100353EA0A0305D00EE04022F3
:103D40008DF80420012208E05CEA010206D030224E
:103D50008DF804208DF8050002229046009B83F028
:103D6000080353EA0A030AD15CEA010201D162079F
:103D700005D530228DF804204FF001087F1E582809
:103D800004D034A003900EA802900DE036A0F9E70D
:103D900053466046009AFCF764FA84460398825CB6
:103DA0000298401E029002705CEA0100F0D1029875
:103DB00006A9081A00F1200A600702D524F480340D
:103DC00000E00127574502DDA7EB0A0000E00020D4
:103DD00000EB0A01009005984144401A0590E00369
:103DE00006D45B462146179A059800F0B3F90544BE
:103DF000002706E001A85A46C05D179990476D1C40
:103E00007F1C4745F6DBE0030CD55B462146179A3D
:103E1000059800F09FF9054404E030205A461799B0
:103E200090476D1C0099481E00900029F5DC08E0C1
:103E3000029802995A460078491C029117999047B6
:103E40006D1CBAF10001AAF1010AF1DC65E1000084
:103E50000928010030313233343536373839616260
:103E60006364656600000000303132333435363724
:103E700038394142434445460000000000F058F9FB
:103E80000544761C307800287FF4ECAD19B0284644
:103E9000BDE8F08F620700D4062709F1070222F07F
:103EA000070CFCE80223E14603F000485FEA080C37
:103EB00002D00FF2702C0DE05FEA045C02D50FF225
:103EC000682C07E05FEAC47C02D00FF2602C01E0AE
:103ED000AFF2700C4FF0FF3823F00043CDF850C024
:103EE00065280CD006DC452809D046281DD0472877
:103EF0003DD13DE0662818D067287ED138E000210A
:103F0000112F01DB112000E0781CCDE9000106A98A
:103F10000EA8FFF7EDFCDDE90F010E9A03910021D9
:103F2000009207F1010A04914DE04FF00040009724
:103F3000CDE9011006A90EA8FFF7DAFCDDE90F02B2
:103F400003920E9B11990022DDF80CA000930492BD
:103F500011B9791C00EB010AB7EB0A0004D4C0F1D7
:103F6000FF3007F1010A0490AAEB0700019044E03A
:103F7000012F00DA01270021112F01DD112000E0BF
:103F80003846CDE9000106A90EA8FFF7B1FCDDE92E
:103F90000F010E9A0391002104910092BA46210765
:103FA0000CD40399514500DA8A46BAF1010F05DDB8
:103FB000009AAAF10101515C302908D0B84202DA16
:103FC00010F1040F06DA0121CDE9011015E0AAF184
:103FD0000101E9E7002805DC049901440491AAEBFA
:103FE000000102E0411C514500DD8A460499401A57
:103FF000401C01904FF000400290200704D401982B
:10400000504501DBCDF8048000208DF84F00029868
:104010000DF14F07B0F1004F25D02B200E900298E4
:104020004FF0020800280CDA404202902D200E903A
:1040300007E00A210298FCF7FEF83031029007F8F9
:10404000011DB8F10001A8F10108F2DC0298002876
:10405000EFD1791E0E980870307800F0200040F003
:10406000450007F8020D12A8C01B00F107081498BC
:10407000007800B1012000EB0A01019801EBE0712A
:1040800005984144401A401E0590E00306D45B4663
:104090002146179A059800F05DF8054414980078B9
:1040A00018B15A46179990476D1CE00324D55B461A
:1040B0002146179A059800F04DF805441CE0049835
:1040C000002807DBDDE90301884203DD0098405C3E
:1040D000179901E0179930205A469047049805F146
:1040E0000105401C04900198401E019004D12E202F
:1040F0005A46179990476D1CBAF10001AAF1010ABE
:10410000DDDC05E017F8010B5A46179990476D1C46
:10411000B8F10001A8F10108F4DC5B462146179ACA
:104120000598ABE62D0000002B00000020000000E9
:104130002DE9F041044600251E461746880404D4A4
:1041400005E039462020B0476D1C641EF9D528468D
:10415000BDE8F0812DE9F041044600251E46904659
:10416000C80301D5302700E02027880404D505E0E6
:1041700041463846B0476D1C641EF9D52846BDE857
:10418000F0810A68531C0B60107070471CB52D48F5
:104190000078012826D12C492C4801F007FAB0B943
:1041A0002BA00C210B467822CDE900100F21002016
:1041B000FDF74AFD4FF6FF70A023822211460090C2
:1041C0000020FDF7DBFA02201E49087035E025A02B
:1041D0000C210B467822CDE900101E210020FDF7AE
:1041E00033FD2AE017480078022826D122480078BB
:1041F00028B9FCF743FB00201249087010E01E4864
:10420000007801280CD11DA00C210B467822CDE9A5
:10421000001073210020FDF717FD002009490870E8
:104220001CA00C210B467822CDE900100F210020A4
:10423000FDF70AFD002003490870034800210160D2
:1042400001711CBD2C0000201C0000202800002053
:10425000706C656173652070726573732020202017
:104260002020000070617373776F72642065727232
:104270006F722020202020002200002066696E67D7
:1042800065727072696E74206973206261642121A5
:10429000210000006164642066696E676572707257
:1042A000696E74206F6B2020000000001CB5012493
:1042B0002F480078012837D12E492F48FBF7A4FF5B
:1042C000002826D1FEF790FA04466CB9022028494E
:1042D00008702AA00C210B467822CDE900104B2152
:1042E0000020FDF7B1FC09E028A00C210B46782244
:1042F000CDE900104B210020FDF7A6FC27A00C21E2
:104300000B467822CDE900103C210020FDF79CFCF3
:1043100029E027A00C210B467822CDE900103C2192
:104320000020FDF791FC1EE01148007802281AD108
:10433000FEF7C2FA68B923A00C210B467822CDE91A
:1043400000103C210020FDF77FFC00200849087088
:1043500009E022A00C210B467822CDE900103C2177
:104360000020FDF771FC03480021016001711CBDB4
:10437000310000201C0000202800002020202020E8
:10438000202020202020202020000000706C65616B
:104390007365207265706C6179000000706C6561F6
:1043A000736520656E74657220616E6761696E0069
:1043B00070617373776F7264206572726F72202000
:1043C00020000000616464206963206361726420DE
:1043D000737563636573732000000000616464207B
:1043E00069632063617264206661696C6400000027
:1043F0001CB52C480078012830D12B492B4801F0FE
:10440000D5F800BB2AA00C210B467822CDE900107C
:104410000F210020FDF718FC2AA00C210B46782262
:10442000CDE900101E210020FDF70EFC4FF6FF70B5
:10443000A0238222114600900020FDF79FF9022060
:104440001849087029E024A00C210B467822CDE9F8
:1044500000101E210020FDF7F7FB1EE01148007838
:1044600002281AD121A00C210B467822CDE9001098
:104470000F210020FDF7E8FB12A00C210B4678224B
:10448000CDE900101E210020FDF7DEFB064907489C
:10449000FBF7C8FE002003490870034800210160B3
:1044A00001711CBD270000201C00002028000020F6
:1044B000696E707574206E65772070617373776FA5
:1044C0007264000020202020202020202020202096
:1044D000202020202020000070617373776F7264A9
:1044E000206572726F72202020202000706173732B
:1044F000776F7264206D6F646966206F6B200000B7
:1045000010B5822435E04FF400611B48FCF75EFDD6
:104510004FF4E0611848FCF757FD0A2000F0EEF870
:104520004FF480611448FCF751FD4FF4306112489C
:10453000FCF74AFD0A2000F0E1F84FF400710E4844
:10454000FCF744FD4FF450610B48FCF73DFD0A2099
:1045500000F0D4F84FF480710748FCF737FD4FF4B2
:1045600060610548FCF730FD0A2000F0C7F8601EC6
:10457000C4B2002CC7DC10BD000C02401CB50024E6
:104580002F4800780B2837D12E492F48FBF73CFEE7
:10459000002826D1FEF74CFA04466CB90C202849B5
:1045A00008702AA00C210B467822CDE900104B217F
:1045B0000020FDF749FB09E028A00C210B467822DA
:1045C000CDE900104B210020FDF73EFB27A00C2178
:1045D0000B467822CDE900103C210020FDF734FB8A
:1045E00029E027A00C210B467822CDE900103C21C0
:1045F0000020FDF729FB1EE0114800780C281AD195
:10460000FEF75AF968B123A00C210B467822CDE9B8
:1046100000103C210020FDF717FB0020084908701E
:1046200009E022A00C210B467822CDE900103C21A4
:104630000020FDF709FB03480021016001711CBD4A
:10464000310000201C000020280000202020202015
:10465000202020202020202020000000706C656198
:104660007365207265706C6179000000706C656123
:10467000736520656E74657220616E6761696E0096
:1046800070617373776F7264206572726F7220202D
:104690002000000064656C206963206361726420FF
:1046A00073756363657373200000000064656C209C
:1046B00069632063617264206661696C6400000054
:1046C00010B504466FF00400FEF794FDE11704EB0B
:1046D0005171C1F3C701074A11701046007800EB11
:1046E0004001C1EBC0104FF6FF7101EAC000024962
:1046F000088010BD100000201200002070B5044694
:104700004FF4077094FBF0F0C6B24FF4077094FBBF
:10471000F0F100FB114085B205E04FF4077000F0A6
:104720002FF8701EC6B2002EF7D115B1284600F042
:1047300027F870BD0146114A12784A434FF0E02332
:104740005A6100229A611A46126942F001021A6106
:1047500000BF4FF0E022106900F001021AB100F42E
:104760008032002AF5D04FF0E022126922F00102D7
:104770004FF0E0231A6100229A6170471000002078
:104780000146114A12884A434FF0E0235A61002241
:104790009A611A46126942F001021A6100BF4FF095
:1047A000E022106900F001021AB100F48032002A00
:1047B000F5D04FF0E022126922F001024FF0E02321
:1047C0001A6100229A617047120000201CB5012175
:1047D0000820FEF7D7F901208DF8040000208DF89D
:1047E00006004FF47060009001208DF80700032050
:1047F0008DF8050069460448FCF76EFB4FF47061C4
:104800000148FCF7E3FB1CBD000C024000BF054A59
:10481000128802F04002002AF9D0C2B2014B9A80FD
:1048200070470000001001401CB501211020FEF768
:10483000A9F94FF47060009001208DF80400002069
:104840008DF8060001208DF8070003208DF8050083
:1048500069460D48FCF740FB4FF470400090002083
:104860008DF8040002208DF8070069460648FCF721
:1048700033FB4FF470610448FCF7A8FB4FF4704120
:104880000148FCF7A1FB1CBD0010024010B511242B
:104890005B48FCF78CFB0F21B1EB102F7ED00A2078
:1048A000FFF72CFF5648FCF782FB0F21B1EB102FCE
:1048B00075D054480078002871D14FF48071504869
:1048C000FCF784FB4FF460614D48FCF77DFB4C48DE
:1048D000FCF76DFB000A112806D0212806D04128DC
:1048E00006D0812808D105E00C2405E00B2403E064
:1048F000002401E00A2400BF00BF4FF400714048CB
:10490000FCF764FB4FF450613D48FCF75DFB3C480D
:10491000FCF74DFB000A122806D0222806D04228B8
:1049200006D0822808D105E00D2405E0032403E029
:10493000022401E0012400BF00BF4FF48061304831
:10494000FCF744FB4FF430612D48FCF73DFB2C484D
:10495000FCF72DFB000A142806D0242806D0442892
:1049600006D0842808D105E00E2405E0062403E0E3
:10497000052401E0042400BF00BF4FF4006120487B
:10498000FCF724FB4FF4E0611D48FCF71DFB1C48BD
:10499000FCF70DFB000A182809D001E02AE02CE002
:1049A000282806D0482806D0882808D105E00F24FA
:1049B00005E0092403E0082401E0072400BF00BF4C
:1049C0004FF470610E48FCF701FB4FF470410C4846
:1049D000FCF7FAFA0A48FCF7EAFA0F21B1EB102FBC
:1049E00004D108480078012800D11124012005498C
:1049F000087002E0002003490870E0B210BD00001A
:104A000000100240480000201CB501211020FEF7D4
:104A1000B9F801208DF8040000208DF80600602010
:104A2000009001208DF8070003208DF805006946ED
:104A30000348FCF751FA60210148FCF7C7FA1CBD96
:104A4000001002401FB500BF0020039002904FF4F9
:104A5000A060FDF7CDFAA820FFF732FE4FF4E13059
:104A600000F0EEFE4FF4614000F042FFFDF746FC1F
:104A7000FFF7CAFFFFF7D8FEFFF7A8FEFCF7AAFA78
:104A8000FEF764F9FEF71EFAFBF78EFEFDF7C8F994
:104A900042F2CF016320FEF753FC002000F0F0FC4F
:104AA000FE48002101600171FCF790FE0020FC49E6
:104AB0000880FCA010210B46C822CDE9001000217F
:104AC0000846FDF7C1F80021084600F087FEF8A06F
:104AD0000C210B467822CDE9001064210020FDF75F
:104AE000B3F827E00398401CC0B203904FF4617004
:104AF000FFF704FE4FF6FF70A02378226421009098
:104B00000020FCF73BFEEFA00C210B467822CDE9FC
:104B1000001073210020FDF797F86420FFF7EEFDE9
:104B2000ECA00C210B467822CDE900108221002058
:104B3000FDF78AF8ED48FDF7A5FA10B103980328B0
:104B4000D0DB0398032825DAE948FDF7F9FA4FF698
:104B5000FF70A0237822642100900020FCF70EFE55
:104B6000E4A00C210B467822CDE90010732100202F
:104B7000FDF76AF8E448FDF709FC0C2003230090D8
:104B8000E148028873216420FDF714F80020DF4912
:104B9000087017E04FF6FF70A02378226421009080
:104BA0000020FCF7EBFDDAA00C210B467822CDE9C2
:104BB000001073210020FDF747F80120D949087043
:104BC000D249087000BF0021D748FEF72CFC4FF6F1
:104BD000FF70A0238022002100900846FCF7CEFD44
:104BE0000121D148FEF71FFCAC4800210160017192
:104BF000FEF768F9FDF714F989E0CC480068C04376
:104C0000CB49C1F89802CB480078012803D1002095
:104C1000C94908707CE0C348007860B9C7A00C217E
:104C20000B467822CDE9001064210020FDF70CF836
:104C300000F060FD25E0BB48007801280AD1C2A041
:104C40000C210B467822CDE9001064210020FCF7EE
:104C5000FBFF16E0B3480078022812D1BDA00C215A
:104C60000B467822CDE9001064210020FCF7ECFF10
:104C7000FDF722FE28B9BA48007810B90120B849DA
:104C80000870B748007818B96420FFF737FD20E0B6
:104C9000B348007801280CD1B2A00C210B46782231
:104CA000CDE9001091210020FCF7CEFF00F0E4FCDC
:104CB0000FE0AB48007802280BD1AEA00C210B46C8
:104CC0007822CDE9001091210020FCF7BDFFFFF70D
:104CD00017FCAD480078022819D18C48007828B913
:104CE000FBF7CCFD0020A849087010E08748007849
:104CF00001280CD1A5A00C210B467822CDE900108B
:104D000073210020FCF7A0FF00209F49087074E782
:104D100000200290FEF7D6F8FDF782F84FF6FF70FC
:104D2000A0238222002100900846FCF727FD9DA0C9
:104D30000C210B467822CDE900100F210020FCF752
:104D400083FF9DA00C210B467822CDE900101E2187
:104D50000020FCF779FF9DA00C210B467822CDE9BD
:104D600000102D210020FCF76FFF9DA00C210B46A9
:104D70007822CDE900103C210020FCF765FF9DA0C2
:104D80000C210B467822CDE900104B210020FCF7C6
:104D90005BFF424800210160017105E36348006840
:104DA000C0436349C1F898026248007800B90AE735
:104DB0006148007801283AD14CF218609249088085
:104DC00078A00C210B467822CDE900100F2100209D
:104DD000FCF73AFF4FF6FF708B49088076A00C2154
:104DE0000B467822CDE900101E210020FCF72CFF95
:104DF00076A00C210B467822CDE900102D21002051
:104E0000FCF722FF76A00C210B467822CDE900109A
:104E10003C210020FCF718FF76A00C210B467822DD
:104E2000CDE900104B210020FCF70EFFB9E242480B
:104E30000078022830D14CF21860734908805EA0D7
:104E40000C210B467822CDE900101E210020FCF732
:104E5000FBFE4FF6FF706C49088052A00C210B46F8
:104E60007822CDE900100F210020FCF7EDFE57A0BD
:104E70000C210B467822CDE900102D210020FCF7F3
:104E8000E3FE57A00C210B467822CDE900103C210F
:104E90000020FCF7D9FEB9E0C4E000001C000020AF
:104EA00044000020312E38205446542053504900ED
:104EB00068616E646C652041533630382E2E2E2E7C
:104EC000000000006E6F7420636865636B2061737F
:104ED000363038007465737420636F6E6E6563746A
:104EE0006520415336303820000000003800002093
:104EF00094000020636F6E6E656374696F6E206F3F
:104F00006B212121000000001A0000202200002057
:104F1000636F6E6E656374696F6E206661696C6441
:104F2000212121002100002000040040980242427B
:104F300000004242330000203400002075736520D9
:104F40006669677572650000757365206B65792009
:104F500020202000757365206963206361726400FE
:104F6000320000206F70656E20646F6F7220202009
:104F700020202000636C6F736520646F6F722020A7
:104F800020202020000000002C00002066696E67B1
:104F900065727072696E7420697320626164212188
:104FA00021000000312E6D6F64696620706173739B
:104FB000776F726400000000322E616464206669BD
:104FC0006E6765727072696E74000000332E6164E2
:104FD0006420696320636172642020202000000047
:104FE000342E64656C2066696E6765727072696ED6
:104FF00074000000352E64656C2069632063617263
:10500000642020202000000046000020AFF21C0099
:105010000C210B467822CDE900104B210020FCF733
:1050200013FEBEE1E148007803283FD14FF6FF7040
:10503000DF490880AFF294000C210B467822CDE9BD
:1050400000100F210020FCF7FFFDAFF294000C21AF
:105050000B467822CDE900101E210020FCF7F4FD5C
:10506000AFF284000C210B467822CDE900103C21E0
:105070000020FCF7E9FDAFF284000C210B467822FA
:10508000CDE900104B210020FCF7DEFD4CF218604A
:10509000C7490880AFF2CC000C210B467822CDE93D
:1050A00000102D210020FCF7CFFD7AE1BF480078E9
:1050B00004283FD14FF6FF70BD490880AFF21C10A5
:1050C0000C210B467822CDE900100F210020FCF7BF
:1050D000BBFDAFF21C100C210B467822CDE900106D
:1050E0001E210020FCF7B0FDAFF220100C210B4672
:1050F0007822CDE900102D210020FCF7A5FDAFF2AC
:105100000C100C210B467822CDE900104B21002019
:10511000FCF79AFD4CF21860A5490880AFF24010E8
:105120000C210B467822CDE900103C210020FCF731
:105130008BFD36E19D48007805283FD14FF6FF7082
:105140009B490880AFF2A4100C210B467822CDE9D0
:1051500000100F210020FCF777FDAFF2A4100C2106
:105160000B467822CDE900101E210020FCF76CFDD3
:10517000AFF2A8100C210B467822CDE900102D21AA
:105180000020FCF761FDAFF2A8100C210B4678223D
:10519000CDE900103C210020FCF756FD4CF21860D0
:1051A00083490880AFF2B4100C210B467822CDE978
:1051B00000104B210020FCF747FDF2E07B4800780F
:1051C0000B2821D10298F8B9012002904FF6FF7008
:1051D0007749088050238222002100900846FCF77E
:1051E000CDFA74A00C210B467822CDE900100F21D6
:1051F0000020FCF729FD0120734908700020734945
:10520000087073490870CCE0684800780B2809D111
:105210007048007801288CD100206E490870FFF793
:10522000E7F8BEE0614800780C282BD1029848BB13
:10523000012002904FF6FF705D49088064238222AE
:10524000002100900846FCF799FA5AA00C210B4661
:105250007822CDE900100F210020FCF7F5FC5EA0BC
:105260000C210B467822CDE900101E210020FCF70E
:10527000EBFC00205449087054490870012054493F
:1052800008708EE0494800780C2809D15148007810
:10529000012892D100204F490870FEF777FF80E087
:1052A000424800780D282CD1029850BB0120029072
:1052B0004FF6FF703E49088064238222002100904F
:1052C0000846FCF75BFA3BA00C210B467822CDE99F
:1052D00000100F210020FCF7B7FC44A00C210B4666
:1052E0007822CDE900101E210020FCF7ADFC002043
:1052F000354908700120354908700020344908708C
:105300004FE02A4800780D280BD1FDF70BFC3148FF
:105310000078012845D100202E490870FEF7C6FF0D
:105320003FE0224800780F282CD1029850BB012082
:1053300002904FF6FF701E490880642382220021EC
:1053400000900846FCF71AFA1AA00C210B467822A6
:10535000CDE900100F210020FCF776FC28A00C21DD
:105360000B467822CDE900101E210020FCF76CFCD2
:105370000020154908700B201449087000201449BA
:1053800008700EE0094800780F280AD1FDF7CAFB23
:1053900010480078012804D100200E490870FFF75A
:1053A000EDF86420FFF7AAF9F8E4000034000020CB
:1053B00046000020696E707574206F6C6420706107
:1053C0007373776F726400002700002031000020A3
:1053D0002C000020350000206164642066696E673F
:1053E00065727072696E7420202000006164642010
:1053F000494320696361726420202020202000003E
:1054000064656C2049432069636172642020202018
:10541000202000002DE9F04104460E461548005DAD
:1054200038B9144820380168204688470120BDE873
:10543000F081114850F82400B04219D90F4850F8B3
:105440002400B6FBF0F10B480C3850F8240030F87B
:105450001120002508E0002306480C3850F82400ED
:105460004F1920F817306D1C9542F4DB0020DEE761
:105470000220DCE790000020A0C4000894C40008CB
:1054800010B504460C4951F824104A000B4951F854
:105490002400002100F0CCF8094951F824200749E4
:1054A0000C3951F82400002100F0C2F80121034812
:1054B0000C30015510BD000088C400088400002095
:1054C000A0C400082DE9F04704460F460025A94670
:1054D0002348005D20B922482038016820468847CB
:1054E0001FB94FF0FF30BDE8F0871E4850F8240088
:1054F000B7FBF0F61B4850F82400B7FBF0F100FBB7
:10550000117000B1761C184850F82400451E22E0A6
:1055100013480C3850F8240030F8150010B909F180
:10552000010901E04FF00009B14513D14FF0000827
:1055300009E00B480C3850F8240005EB080220F86D
:10554000126008F10108B045F3D3064850F8240072
:105550006843C8E76D1E002DDADA4FF0FF30C2E76E
:105560009000002094C4000888C4000810B50146CB
:105570000023002207E00B4850F8210030F8120009
:1055800000B15B1C521C084850F821009042F2D830
:1055900064205843044C54F82140B0FBF4F0C0B2EE
:1055A00010BD00008400002088C40008024605E009
:1055B000107808B900207047521C491C10780B78ED
:1055C0009842F5D010780B78984201DD0120F2E77F
:1055D00010780B78984202DA4FF0FF30EBE700BF0B
:1055E000E9E7000070B505460C4604B970BD0548F2
:1055F00050F82500261A31462846FFF70BFF00BF5A
:10560000F4E700007800002070B504460E463146ED
:105610002046FFF757FF0546681C08B9002070BDFB
:10562000024850F824002844F9E7000078000020E0
:1056300030B5034601E003F8011B1400A2F101029A
:10564000F9D130BD10B50446094800780A2190FB15
:10565000F1F201FB120050B906480078012803D18D
:105660002046FBF735FE02E02046FBF7D1FA10BDDD
:105670003E0000202100002010B5822435E04FF4C8
:1056800080711B48FBF7A2FC4FF460611848FBF7E0
:105690009BFC0A20FFF732F84FF400711448FBF727
:1056A00095FC4FF450611248FBF78EFC0A20FFF77F
:1056B00025F84FF480610E48FBF788FC4FF4306109
:1056C0000B48FBF781FC0A20FFF718F84FF4006144
:1056D0000748FBF77BFC4FF4E0610548FBF774FCDF
:1056E0000A20FFF70BF8601EC4B2002CC7DC10BD07
:1056F000000C02403EB5FCF7A8FC0446002C4DD13E
:105700000120FCF77FFC0446002C3FD1284802888A
:1057100002AB00210120FCF7A8FD0446002C31D18A
:105720004FF6FF70A0237822822100900020FCF722
:1057300025F820A00C210B467822CDE900109121FC
:105740000020FCF781FA01201F4908703021002059
:10575000FFF75AFF0546BDF80A30BDF808201BA127
:105760002846FEF7A1F80C20034678228221CDE9D5
:1057700000050020FCF768FA29460020FFF732FFF9
:10578000002506E02046FDF709FD02E02046FDF772
:1057900005FD4FF41670FEF7B1FF08E04FF6FF70FD
:1057A00091237822822100900020FBF7E7FF3EBD85
:1057B000940000206F70656E20646F6F722020204F
:1057C00020202020202020003200002049443A25BB
:1057D000642020736F7263653A2564002DE9F047F9
:1057E00081460F460024002524E0781981B24846FE
:1057F000FCF70EF9FCF70CFB4FF0000815E00F4822
:1058000010F814604FF6FF7000EA0626012000EB46
:1058100044000A49085C06433046FCF7A7FA601CBE
:1058200084B208F101001FFA80F8B8F1800FE6DBBE
:10583000681C85B2502DD8DBBDE8F087887400085D
:1058400010B588B0044601210846FDF79BF90121F7
:105850001020FDF7C7F9072209212348FBF784FB35
:1058600007220A212048FBF77FFB4FF4C060069017
:1058700002208DF81C008DF81D0000208DF81E0000
:1058800001208DF81F0006A91748FBF725FB02949D
:105890000020ADF80C00ADF80E00ADF81000ADF82A
:1058A00014000C20ADF8120002A91048FDF75AFFB1
:1058B00001210E48FDF781FE012240F225510B48DF
:1058C000FDF72AFF25208DF8040001208DF8050042
:1058D00002208DF8060001208DF8070001A8FCF7D2
:1058E0004BFB08B010BD000000000240001001405A
:1058F00010B588B0044601210846FDF743F901219F
:105900004804FDF74FF92B48FDF764FE07220221FA
:105910002948FBF729FB072203212748FBF724FB33
:105920000C20059002208DF818008DF81900002039
:105930008DF81A0001208DF81B0005A91E48FBF701
:10594000CBFA01940020ADF80800ADF80A00ADF8DC
:105950000C00ADF810000C20ADF80E0001A91548A0
:10596000FDF700FF01211348FDF727FE012240F259
:1059700025511048FDF7D0FE26208DF81C0001208F
:105980008DF81D0000208DF81E0001208DF81F00ED
:1059900007A8FCF7F1FA42F2CF0140F2E730FDF739
:1059A00017FD00200549088000210548FDF73BFD53
:1059B00008B010BD00440040000002403C00002040
:1059C000001400401CB50446604800780A2190FB92
:1059D000F1F201FB1200002870D1112C6ED00A2CBC
:1059E00014DA5B480078042810DA5A4800780A284C
:1059F0000CDB04F13000C1B25748554A127881548B
:105A000053480078401C524908707DE00A2C0ED1A2
:105A10005048007800280ADB4D480078401E4C4969
:105A2000087020214C484A4A127881546CE0012CBD
:105A300007D1484800780A2803DC0120454908704E
:105A400062E0022C07D1434800780A2803DC0220D8
:105A50004049087058E0032C07D13E4800780A28D6
:105A600003DC03203B4908704EE0042C07D1394881
:105A700000780A2803DC04203649087044E0052C2D
:105A800007D1344800780A2803DC05203149087022
:105A90003AE00B2C33D100202D4908702D480078B6
:105AA000012803D10B202B4908702DE029480078EC
:105AB000022804D10C202749087025E044E025483D
:105AC0000078032803D10D20224908701CE02148EA
:105AD0000078042803D10E201E49087014E01D48E8
