:020000040800F2
:1000000000B101209D010008792100089F1100081E
:1000100075210008A10B0008573C000800000000F3
:10002000000000000000000000000000E1330008B4
:10003000710C000800000000572A0008F135000884
:10004000B7010008B7010008B7010008B7010008B0
:10005000B7010008B7010008B7010008B7010008A0
:10006000B7010008B7010008B7010008B701000890
:10007000B7010008B7010008B7010008B701000880
:10008000B7010008B7010008B7010008B701000870
:10009000B7010008B7010008B7010008B701000860
:1000A000B7010008B7010008B7010008B701000850
:1000B000B70100085D360008B7010008B701000865
:1000C000B7010008B7010008B7010008B701000830
:1000D000B70100081139000841390008B7010008CC
:1000E000B7010008B7010008B7010008B701000810
:1000F000B7010008B7010008B7010008B701000800
:10010000B7010008B7010008B7010008B7010008EF
:10011000B7010008B7010008B7010008B1370008AF
:10012000B7010008B7010008B7010008B7010008CF
:10013000B7010008B7010008B7010008B7010008BF
:10014000B7010008B7010008B7010008B7010008AF
:10015000B7010008B7010008B7010008B70100089F
:10016000B7010008B7010008B7010008B70100088F
:10017000B7010008B7010008B7010008B70100087F
:10018000B7010008B7010008DFF80CD000F052FA00
:10019000004800478550000800B10120064880470C
:1001A00006480047FEE7FEE7FEE7FEE7FEE7FEE75C
:1001B000FEE7FEE7FEE7FEE7F535000889010008E7
:1001C000D2B201E000F8012B491EFBD27047002299
:1001D000F6E710B513460A4604461946FFF7F0FF46
:1001E000204610BD30B505462A460B4612F8010BD5
:1001F00013F8014B08B1A042F8D01CB1002802D07E
:100200006D1CF1E7284630BD10B5002200E0521CFD
:10021000835C8C5CA34201D1002BF8D1D8B2E1B24F
:10022000401A10BD034611F8012B00F8012B002ADB
:10023000F9D11846704730B50B4601460020202200
:10024000012409E021FA02F59D4205D303FA02F5E3
:10025000491B04FA02F52844151EA2F10102F1DC43
:1002600030BD2DE9F05F0546002092469B4688464A
:100270000646814640241BE0284641464746224622
:1002800000F0F9F953465A46C01A914110D311466D
:100290001846224600F0E0F92D1A67EB01084F4698
:1002A00022460120002100F0D7F917EB00094E414A
:1002B000201EA4F10104DFDC484631462A464346AD
:1002C000BDE8F09F2DE9FE4F804681EA0300C00F94
:1002D0000C46009021F0004123F00045B8EB0200ED
:1002E000A94105D24046214690461C460B4602468F
:1002F00023F00040104347D0270DC7F30A00C3F393
:100300000A510290401A019040286BDAC3F313009F
:1003100040F4801B0098924620B10023D2EB030AE0
:1003200063EB0B0B01985946C0F14002504600F0B8
:1003300093F906460D4650465946019A00F0ABF92E
:1003400010EB08006141002487EA115284EAE77348
:100350001A4340D0009A62B3019A012A4FEA075229
:1003600015DC001B61EB02014FF0004202EA07526C
:10037000CDE90042001C41F5801132462B4600F0C9
:10038000ABF903B0BDE8F08F40462146F9E7001B0A
:1003900061EB0201001C41F5801300185B4120183D
:1003A000A2F5001747EB030140EAD570B6196D417D
:1003B00011E06D084FEA360645EAC0754FEA07526C
:1003C000001B61EB0201001C41F5801149084FEA56
:1003D00030000019514132462B4603B0BDE8F04FC2
:1003E00000F06BB90098012240000023D0EB02021C
:1003F00063EBE073009821464FEAE074B8EB00002D
:1004000061EB0401E9E783F000435BE781F0004121
:1004100058E72DE9FE4F81EA030404F0004421F07F
:10042000004100944FF0000B23F0004350EA010418
:100430005ED052EA03045BD0C3F30A54C1F30A55F9
:100440002C44A4F2F3340194A0FB0254C1F3130131
:1004500041F48011C3F3130343F4801301FB0244FE
:1004600000FB034E840A970A44EA815447EA835703
:10047000A4FB076802958D0A05FB07854FEA932CBC
:1004800004FB0C542705029D4FEA065847EA16372D
:10049000B5EB08056EEB070C870E920E47EA811745
:1004A00042EA8312A7FB0201B6EB0B0164EB0004E6
:1004B0002B0D43EA0C335E1844EB1C50DA465146D0
:1004C000E7FB0201C5F313044FEA0B3343EA14536D
:1004D0004FEA0432019C43EA0603A4F10C0402949F
:1004E000009CCDE900B400F0F7F803B0BDE8F08F50
:1004F00000200146F9E72DE9F04D81EA030404F0FC
:10050000004B21F0004514464FF0000A23F0004153
:1005100050EA050220D054EA01021DD0C5F30A5763
:100520000246C5F31303C1F31300C1F30A5640F4A6
:10053000801543F48013A7EB0608101BD64608F27B
:10054000FD3873EB050002D308F1010801E09218B1
:100550005B41B8F1000F03DA00200146BDE8F08DE1
:1005600000204FF48011064684460EE0171B73EB03
:10057000050705D3121B63EB050306434CEA010C88
:1005800049084FEA300092185B4150EA0107EDD16B
:1005900052EA030012D082EA040083EA050108430C
:1005A00005D0101BAB4106D20122002306E0002239
:1005B0004FF0004302E06FF0010253101AEB060007
:1005C0004CEB085110EB0A0041EB0B01BDE8F04D7C
:1005D00000F073B8C1F30A52C1F3130140F2FF33C4
:1005E00041F480119A4202DA00200146704740F23D
:1005F00033439A42A2F2334202DC524200F03BB84B
:1006000000F02AB830B5041E71F1000404DB4FF08D
:100610000044404264EB0101141E73F1000405DB49
:100620001C464FF00043524263EB0403994208BF5B
:10063000904230BD064C074D06E0E06840F00103F3
:1006400094E8070098471034AC42F6D3FFF7A0FDBA
:10065000E4CB000804CC0008202A04DB203A00FA8E
:1006600002F1002070479140C2F1200320FA03F309
:10067000194390407047202A04DB203A21FA02F007
:100680000021704721FA02F3D040C2F120029140CC
:10069000084319467047202A06DBCB17203A41FA57
:1006A00002F043EAE07306E041FA02F3D040C2F1FF
:1006B0002002914008431946704710B5141E73F18B
:1006C000000408DA401C41F1000192185B411A4312
:1006D00001D120F0010010BD2DE9F04D92469B465E
:1006E00011B1B1FA81F202E0B0FA80F22032904604
:1006F000FFF7B2FF04460F4640EA0A0041EA0B0149
:1007000053465A46084313D0114653EA010019D004
:10071000C8F140025046FFF7AEFF05460E46504670
:1007200059464246FFF798FF084305D0012004E0F0
:1007300020463946BDE8F08D0020054346EAE076C4
:100740002C4337430A986305E40AA0EB0800002213
:10075000FD0A44EA47540A3002D500200146E9E781
:10076000010510196941DDE9084500196941BDE835
:10077000F04DA2E710B547F6FF7000F02DF80446E3
:10078000552C01D1002010BD552147F6FF7000F017
:100790004EF847F6FF7000F01FF80446552C01D1C3
:1007A0000020F0E70120EEE71CB500F0FBFCFFF7AE
:1007B000E1FF48B905A018210B469022CDE90010B1
:1007C0003C211E2001F042FB1CBD0000323463328C
:1007D0003536204F4B21000070B50446002600F04E
:1007E0009BFDA02000F05CFD00F0E4FD201200F075
:1007F00057FD00F0DFFD2546E11704EB11610912FA
:10080000A4EB0121C8B200F04BFD00F0D3FD00F0D5
:1008100083FDA12000F044FD00F0CCFD00F010FDB0
:10082000064600F0E3FC00F09DFD304670BD70B55B
:1008300004460E4600F070FDA02000F031FD00F0EF
:10084000B9FD201200F02CFD00F0B4FD2546E117A3
:1008500004EB11610912A4EB0121C8B200F020FDE4
:1008600000F0A8FDF0B200F01BFD00F0A3FD00F0C9
:1008700079FD0A2004F062FA70BD00002DE9FC4108
:100880000027EAE0052F2DD2DFE807F0032D57857A
:10089000A800681CC5B273A00C210B467822CDE9D4
:1008A00000109121002001F0D1FA01F006FD04466C
:1008B000ACB9012001F0DEFC044664B96FA00C2144
:1008C0000B467822CDE900109121002001F0BEFAFC
:1008D0000025012706E0204602F04AFE02E02046FD
:1008E00002F046FEA7E0681CC5B269A00C210B46C9
:1008F0007822CDE900109121002001F0A7FA01F043
:10090000DCFC0446ACB9022001F0B4FC044664B936
:100910005AA00C210B467822CDE90010912100202D
:1009200001F094FA0025022706E0204602F020FE9E
:1009300002E0204602F01CFE7DE05AA00C210B468E
:100940007822CDE900109121002001F07FFA01F01A
:1009500011FD04465CB959A00C210B467822CDE963
:1009600000109121002001F071FA03270EE059A038
:100970000C210B467822CDE900109121002001F0D6
:1009800065FA204602F0F4FD002500274FF496603A
:1009900004F0D4F94FE055A00C210B467822CDE9A4
:1009A00000109121002001F051FA01F079FD044678
:1009B0005CB955A00C210B467822CDE9001091219D
:1009C000002001F043FA042703E00027204602F04C
:1009D000CFFD4FF4966004F0B1F92CE05148008847
:1009E000401C86B250480088B0420ADA4FA00C2161
:1009F0000B467822CDE900109121002001F026FA63
:100A000019E03146022001F0C9FD044674B94DA039
:100A10000C210B467822CDE900109121002001F035
:100A200015FA404801F0EAFDBDE8FC8100272046A8
:100A300002F09EFD00BF00BF4FF47A7004F07EF913
:100A4000052D0AD145A00C210B467822CDE90010D6
:100A50009121002001F0FAF900E013E700BF00BF88
:100A6000E2E70000706C65617365207072657373F6
:100A700020202020202020202000000066696E67B2
:100A800065727072696E74206F6B202020200000E8
:100A9000707265737320616761696E202020202069
:100AA00020200000436F6D706172696E6720202006
:100AB000202020202020202020200000436F6D7067
:100AC00061726564206F6B20202020202020202070
:100AD00000000000436F6D7061726564206661699B
:100AE0006C642020202020202020200047656E6597
:100AF000726174696E672074656D706C61746520D5
:100B0000202020202000000047656E657261746916
:100B10006E672074656D706C617465206F6B20204A
:100B2000200000001A0000209C00002074656D70F9
:100B30006C6174652069732066756C6C20202020C0
:100B400020000000736176652066696E67657270CB
:100B500072696E74206F6B202000000074696D65EF
:100B60006F7574202020202020202020202020208D
:100B70000000000070B5054605F0010058B11420D2
:100B800002F0FCF9044604F0030040B903211420EC
:100B900002F069FC03E00321142000F05BF870BD53
:100BA00000BFFEE72DE9F0410746884615460421BF
:100BB000052000F04FF80021012003F04FF88021BC
:100BC0000A2002F050FC002405E0395D092003F002
:100BD00045F8601CC4B24445F7DB0321012003F053
:100BE0003DF8FF2400BF052002F0C8F90646601E4C
:100BF000C4B21CB106F004000028F4D0222002F098
:100C0000BDF92870212002F0B9F96870BDE8F081C3
:100C100038B504460F2C17D10C480078401C0B49FE
:100C2000087000200A49087008480078022802DD90
:100C30000020064908704FF6FF70A0237822642137
:100C40000090002000F09CFE38BD00001C00002039
:100C50003000002070B505460C460026284602F0FC
:100C60008DF9064626EA0401284602F0F7FF70BD1A
:100C7000704700000146212948D2DFE801F0111336
:100C80001517191B1D1F21282F314747474733359B
:100C9000474747374747393B3D3F41474743450073
:100CA0001CA035E01CA033E01FA031E023A02FE002
:100CB00027A02DE02EA02BE035A029E03BA027E0C7
:100CC00048A04B4A1278521C494B1A7020E049A0A8
:100CD000474A1278521C464B1A7019E049A017E097
:100CE0004CA000BF54A013E057A011E05AA00FE0A1
:100CF00062A00DE065A00BE067A009E06AA007E034
:100D00006EA005E072A003E074A001E076A000BF31
:100D100000BF70474F4B0000CAFDBEDDB0FCBDD325
:100D2000CAD5B4EDCEF30000B4ABB8D0C6F7C9CF86
:100D3000C3BBD3D0CAD6D6B800000000C2BCC8EB33
:100D4000D6B8CEC6CDBCCFF1CAA7B0DC000000003B
:100D5000D6B8CEC6CDBCCFF1CCABB8C9A1A2CCAB76
:100D6000B5ADB6F8C9FAB2BBB3C9CCD8D5F7000057
:100D7000D6B8CEC6CDBCCFF1CCABCAAAA1A2CCAB63
:100D8000BAFDB6F8C9FAB2BBB3C9CCD8D5F70000E2
:100D9000D6B8CEC6CDBCCFF1CCABC2D2B6F8C9FA6C
:100DA000B2BBB3C9CCD8D5F700000000D6B8CEC6C8
:100DB000CDBCCFF1D5FDB3A3A3ACB5ABCCD8D5F7A3
:100DC000B5E3CCABC9D9A3A8BBF2C3E6BBFDCCABA2
:100DD000D0A1A3A9B6F8C9FAB2BBB3C9CCD8D5F78C
:100DE00000000000D6B8CEC6B2BBC6A5C5E4000060
:100DF00030000020C3BBCBD1CBF7B5BDD6B8CEC633
:100E000000000000CCD8D5F7BACFB2A2CAA7B0DC98
:100E100000000000B7C3CECAD6B8CEC6BFE2CAB182
:100E2000B5D8D6B7D0F2BAC5B3ACB3F6D6B8CEC63D
:100E3000BFE2B7B6CEA70000C9BEB3FDC4A3B0E5FC
:100E4000CAA7B0DC00000000C7E5BFD5D6B8CEC643
:100E5000BFE2CAA7B0DC0000BBBAB3E5C7F8C4DA8A
:100E6000C3BBD3D0D3D0D0A7D4ADCABCCDBCB6F809
:100E7000C9FAB2BBB3C9CDBCCFF10000B6C1D0B482
:100E800020464C41534820B3F6B4ED00CEB4B6A88A
:100E9000D2E5B4EDCEF30000CEDED0A7BCC4B4E6FC
:100EA000C6F7BAC500000000BCC4B4E6C6F7C9E87E
:100EB000B6A8C4DAC8DDB4EDCEF30000BCC7CAC220
:100EC000B1BED2B3C2EBD6B8B6A8B4EDCEF3000033
:100ED000D6B8CEC6BFE2C2FA00000000B5D8D6B779
:100EE000B4EDCEF300000000C4A3BFE9B7B5BBD892
:100EF000C8B7C8CFC2EBD3D0CEF3000030B107499A
:100F0000096841F48061054A116005E003490968F8
:100F100021F48061014A116070470000003C0240EA
:100F200070B504460A460026092502B909E0012ADF
:100F300001D1160205E0022A01D1160201E04FF4A8
:100F4000407600F09FF80546092D28D11548006825
:100F500020F4407013490860084600683043086078
:100F60000846006820F0F80008600846006844F071
:100F7000020108430B4908600846006840F48030CD
:100F8000086000F07FF805460648006820F002007F
:100F9000044908600846006820F0F8000860284608
:100FA00070BD0000103C024009201349096801F49B
:100FB0008031B1F5803F01D101201CE00E49096864
:100FC00001F0100109B1062015E00B49096801F490
:100FD000807109B102200EE00749096801F0EF01B4
:100FE00009B1072007E00449096801F0020109B1CD
:100FF000082000E0092070470C3C024003480068CC
:1010000040F000400149086070470000103C024079
:1010100030B502460C46092500F034F80546092D86
:1010200019D10E48006820F440700C490860084649
:10103000006840F4007008600846006840F0010055
:101040000860146000F01EF805460448006820F0AF
:10105000010002490860284630BD0000103C0240F3
:101060000548006800F0004028B1044802490C39E6
:101070000860034808607047103C02402301674540
:10108000AB89EFCD08B509200090FFF78DFF0090E8
:1010900002E0FFF789FF00909DF800000128F8D0DA
:1010A0009DF8000008BDF0B50A4600210023002489
:1010B00000BF3DE0012505FA01F3156805EA0304C8
:1010C0009C4234D105684F000326BE40B5430560FD
:1010D00015794E00B5400668354305601579012D38
:1010E00002D01579022D16D185684F000326BE4027
:1010F000B543856055794E00B540866835438560B7
:10110000456801268E40B5434560456896798E4016
:10111000B6B235434560C5684F000326BE40B543AF
:10112000C560D5794E00B540C6683543C560491CD9
:101130001029BFD3F0BDF0B5002300244D07ED0EFC
:1011400002FA05F3CE1000F1200555F826504E079F
:10115000F70E0F26BE40B543CF1000F1200646F82B
:101160002750CE1000F1200555F8265045EA03041B
:10117000CE1000F1200545F82640F0BD0146086973
:1011800080B270470246002013690B400BB101206A
:1011900000E000207047418370470183704700BF23
:1011A000FEE700001CB50121022001F023FEC02053
:1011B000009001208DF8040000208DF80600032027
:1011C0008DF8050001208DF8070069460448FFF7F7
:1011D0006AFF0120034908600349C1F89C021CBD55
:1011E00000040240988240420080404210B5002036
:1011F00010490860022003F0BDFD0F48006820F48C
:1012000040400D4908600846006840F4804008608E
:1012100001200A49C1F89C02022003F0ABFD012025
:1012200004490860022003F0A5FD00200349C1F82D
:10123000980210BD98824042000402400080404263
:1012400070B500241348006820F44040114908603C
:10125000084600680860002517E000200E49086075
:10126000022003F087FD01200C49C1F898026006B6
:10127000040E80210748FFF785FF08B1601CC4B247
:10128000012003F077FD681CC5B2082DE5DB204680
:1012900070BD00000004024098824042008040423D
:1012A00070B504461948006820F4404017490860AA
:1012B0000846006840F48040086000201449086037
:1012C00000251FE004F0800020B180210F48FFF7C7
:1012D00064FF03E080210D48FFF75DFF6006040E08
:1012E000022003F047FD012009490860022003F0B5
:1012F00041FD00200749C1F89802022003F03AFDA1
:10130000681CC5B2082DDDDB70BD00000004024082
:10131000988240420080404210B51048006820F496
:1013200040400E4908600846006840F4804008606C
:1013300080210A48FFF731FF01200949086000BFFA
:1013400080210648FFF71EFF08B9012010BD80214B
:101350000248FFF720FF00BF0020F7E7000402402B
:101360009882404210B51048006820F440400E4971
:1013700008600846006840F48040086000200B497F
:1013800008600B49C1F89C02012003F0F3FC012026
:101390000649086003F0EEFC01200549C1F89C02F3
:1013A000042003F0E7FC10BD000402409882404294
:1013B0000080404210B50024002014490860144801
:1013C000006820F440401249086008460068086040
:1013D00001201049C1F89C0203F0CCFC01200B490C
:1013E000086003F0C7FC07E0601CC4B2FA2C03DD00
:1013F000FFF7B8FF012010BD80210548FFF7C2FEAE
:101400000028F1D10149086000BFF4E7988240420A
:1014100000040240008040427CB50546EF208DF874
:10142000000001208DF801001A480068000E8DF8B8
:10143000020018480068000C8DF803001548008869
:10144000000A8DF80400134800788DF80500072085
:101450008DF8060000208DF807000F49088012E083
:10146000012003F06BFC0C48008800F4004050B1F0
:1014700000200949088069460848FEF7B3FE044683
:101480000CB120467CBD681E80B20500E8D100BFCB
:10149000F8E700003C000020420000203802002055
:1014A0007CB504460025112C10D00A2C0FDACF4849
:1014B000007804280BDA04F13000CD49CB4A1278C9
:1014C0008854CA480078401CC84908706EE10A2C4C
:1014D0000AD1C6480078401EC44908702020C4497B
:1014E000C24A1278885461E10B2C6FD1C148007850
:1014F00000282FD1C048007860BBC048007848BBA6
:10150000BB49BF4804F0DEFB68B9BEA00C210B4606
:101510007822CDE900109121002000F097FC0120F5
:10152000BC4908700EE0BC480078401CBA490870FD
:10153000BAA00C210B467822CDE9001091210020A1
:1015400000F084FC0020A9490870A948002101602E
:1015500001712BE1A7480078012838D1A449A84897
:1015600004F0B0FBF8B9B1A00C210B467822CDE90C
:1015700000109121002000F069FCB1A00C210B4665
:101580007822CDE900107321002000F05FFC0020DC
:1015900096490870202204219548FEF711FE02208A
:1015A0009449087002E1ACA00C210B467822CDE9E9
:1015B00000109121002000F049FC00208B490870A8
:1015C000202204218A48FEF7FBFDEFE0B3E08948C2
:1015D0000078022818D186498948FEF723FEA3A087
:1015E0000C210B467822CDE900107321002000F079
:1015F0002DFC00207F4908707C49087020220421BE
:101600007B48FEF7DDFDD1E07B480078012837D12B
:1016100077497B4804F056FBF8B99AA00C210B4699
:101620007822CDE900107321002000F00FFC9BA070
:101630000C210B467822CDE900109121002000F00A
:1016400005FC002069490870202204216848FEF743
:10165000B7FD022068490870A8E07FA00C210B4666
:101660007822CDE900109121002000F0EFFB00204E
:101670005E490870202204215D48FEF7A1FD95E037
:101680005E480078012839D159495D4804F01AFBB9
:1016900008BB88A00C210B467822CDE900109121CF
:1016A000002000F0D3FB01F0D7F900204F4908706B
:1016B000202204214E48FEF783FD02204F49087086
:1016C00081A00C210B467822CDE900109121002049
:1016D00000F0BCFB6AE060A00C210B467822CDE94B
:1016E00000109121002000F0B1FB00203F4908705C
:1016F000202204213E48FEF763FD57E03F48007872
:10170000022853D101F010FA50B974A00C210B46F5
:101710007822CDE900109121002000F097FB45E0F0
:1017200074A00C210B467822CDE9001091210020F5
:1017300000F08CFB3AE00F2C14D173480078401C69
:101740007149087008460078022801DD0020087001
:101750004FF6FF70A023782264210090002000F053
:101760000FF923E00E2C14D1012024490870002029
:1017700020490870204908701C49087063A00C219A
:101780000B467822CDE900107321002000F05EFBAB
:101790000CE00C2C03D101206149087006E00D2CEF
:1017A00003D100205E49087000E000BF5DA00C215D
:1017B0000B468022CDE9001078213C2000F046FB4A
:1017C00000250DE059A00C21CDE900103C2101EBD2
:1017D000C5000C230822782100F038FB681CC5B234
:1017E000024800788542EDDB7CBD000051000020FE
:1017F0001D000020310000203300002032000020B6
:10180000260000206F70656E20646F6F72202020AC
:10181000202020003600002030000020706173730B
:10182000776F7264206572726F7220006D6F6469E9
:10183000662070617373776F72642020200000004F
:10184000696E707574206E65772070617373776F41
:10185000726420202000000070617373776F7264DF
:10186000206572726F722020200000006D6F646925
:101870006620202073756363657373212121202006
:10188000200000006164642066696E676572202034
:10189000202020202020202020000000706C656186
:1018A0007365207072657373202020202020202013
:1018B0002000000061646420696320636172642019
:1018C0002020202000000000706C65617365206599
:1018D0006E74657220616E6761696E006164642078
:1018E0006963206361726420737563636573732039
:1018F00000000000616464206963206361726420F9
:101900006661696C640000001C0000206164642052
:10191000696320636172642C696E707574202000A5
:101920003700002020202020202000002A00000076
:1019300070B50646002409480588408845430021C3
:10194000084600F067F900F065FB00BF03E0304691
:1019500000F00EFB641CAC42F9D370BDC80300203C
:1019600070B504460D462946204600F053F900F0B4
:1019700051FB0248008800F0FBFA70BD4C000020CB
:101980002DE9F05F05460E4617469846DDF828A07B
:101990004FF0000B781B401C1FFA80FB344613E00D
:1019A0002146284600F036F900F034FB4FF00009DC
:1019B00006E0504600F0DCFA09F101001FFA80F958
:1019C000D945F6DB601C84B24445E9DDBDE8F09FF3
:1019D00010B5002085490860322003F0AFF90120DE
:1019E0008349C1F88402322003F0A8F920218148FC
:1019F000FFF7D1FB142003F0A1F920217D48FFF768
:101A0000CCFB142003F09AF980207B490880A020A9
:101A100048802C2088712A20C8712B200872112040
:101A200000F0DEFA782003F089F9B12000F0D8FA4E
:101A3000052000F0BBFA3C2000F0B8FA3C2000F092
:101A4000B5FAB22000F0CCFA052000F0AFFA3C2045
:101A500000F0ACFA3C2000F0A9FAB32000F0C0FA84
:101A6000052000F0A3FA3C2000F0A0FA3C2000F092
:101A70009DFA052000F09AFA3C2000F097FA3C20ED
:101A800000F094FAB42000F0ABFA032000F08EFAD4
:101A9000C02000F0A5FA282000F088FA082000F005
:101AA00085FA042000F082FAC12000F099FAC020E3
:101AB00000F07CFAC22000F093FA0D2000F076FAD4
:101AC000002000F073FAC32000F08AFA8D2000F0A5
:101AD0006DFA2A2000F06AFAC42000F081FA8D2005
:101AE00000F064FAEE2000F061FAC52000F078FA08
:101AF0001A2000F05BFA362000F072FAC02000F0E5
:101B000055FAE02000F06CFA042000F04FFA222091
:101B100000F04CFA072000F049FA0A2000F046FADB
:101B20002E2000F043FA302000F040FA252000F08B
:101B30003DFA2A2000F03AFA282000F037FA262051
:101B400000F034FA2E2000F031FA3A2000F02EFA9C
:101B5000002000F02BFA012000F028FA032000F00A
:101B600025FA132000F022FAE12000F039FA0420CF
:101B700000F01CFA162000F019FA062000F016FA00
:101B80000D2000F013FA2D2000F010FA262000F0AE
:101B90000DFA232000F00AFA272000F007FA272088
:101BA00000F004FA252000F001FA2D2000F0FEF9E3
:101BB0003B2000F0FBF9002000F0F8F9012000F0D4
:101BC000F5F9042000F0F2F9132000F0EFF93A20C3
:101BD00000F006FA052000F0E9F9292000F000FAEB
:101BE0004FF6FF70FFF7A4FE10BD000084024042D4
:101BF0000000404200080240C803002010B5024621
:101C0000012000E050430B00A1F10104E1B2F9D141
:101C100010BD000070B504460D460A49C87900F0B1
:101C2000DFF9201200F0C2F9E0B200F0BFF9054977
:101C3000087A00F0D5F9281200F0B8F9E8B200F0FF
:101C4000B5F970BDC80300202DE9F84F81460D4657
:101C500017461E4600955348B0F80080A7F12000B3
:101C6000C7B20A98002850D100244BE00C2E07D1AF
:101C700007EB47004C4901EB800010F804A004E09A
:101C80004A4800EB071010F804A04FF0000B33E0B7
:101C90000AF0800018B14348A0F8008003E04448EF
:101CA00000884049088029464846FFF759FE4FEA18
:101CB0004A604FEA106A681C85B23E484088A842D4
:101CC00004DC3848A0F80080BDE8F88F0098281A96
:101CD000B0420DD1009D09F101001FFA80F935488D
:101CE0000088484503DC2F48A0F80080ECE706E0B8
:101CF0000BF1010000F0FF0BBBF1080FC8DB00BFC8
:101D0000601CC4B2B442B1DB46E0002442E00C2EB9
:101D100007D107EB4700244901EB800010F804A02D
:101D200004E0224800EB071010F804A04FF0000B6D
:101D30002AE00AF0800018B129464846FFF710FE55
:101D40004FEA4A604FEA106A681C85B21948408819
:101D5000A84203DC1348A0F80080B5E70098281AD1
:101D6000B0420DD1009D09F101001FFA80F9114820
:101D70000088484503DC0B48A0F80080A4E706E093
:101D80000BF1010000F0FF0BBBF1080FD1DB00BF2E
:101D9000601CC4B2B442BADB0248A0F8008000BFA5
:101DA00092E700004C0000205C710008D07500082C
:101DB0004E000020C80300202DE9FF4F81B00746E8
:101DC00091461E460E9D4FF0000A002439E0301B5C
:101DD000401EC1B20A20FFF711FFB9FBF0F00A2143
:101DE000B0FBF1F201FB1208BAF1000F16D1701E20
:101DF000A04213DDB8F1000F0ED10020AB4605EB79
:101E0000DB71491001FB0471009088B22B4620223F
:101E10000299FFF719FF12E04FF0010A0020AB46CC
:101E200005EBDB71491001FB0471009088B208F1E9
:101E30003001CAB22B460299FFF706FF00BF601CB3
:101E4000C4B2B442C3DB05B0BDE8F08F2DE9F84F52
:101E500004460D4690469946DDE90A6704F0FF0AFC
:101E600008EB04001FFA80F809EB05001FFA80F95F
:101E700016E0444502DB5446A81985B24D4500DB07
:101E800014E0002000903A78334629462046FFF7B8
:101E9000DBFE304606EBD07104EB61018CB27F1C97
:101EA00038787E2802DC38782028E2DA00BFBDE8E6
:101EB000F88F2DE9FF4F83B0064692461F46DDE9B5
:101EC00010480020029000254DE0781B401EC1B252
:101ED0000A20FFF793FEBAFBF0F00A21B0FBF1F203
:101EE00001FB1209029850BB781EA84227DDB9F108
:101EF000000F22D108F0800078B108F00100A3465D
:101F000004EBDB71491001FB0561009088B22346A8
:101F100030220499FFF798FE0EE008F00100A34676
:101F200004EBDB71491001FB0561009088B2234688
:101F300020220499FFF788FE13E00120029008F0A8
:101F40000100A34604EBDB71491001FB0561009021
:101F500088B209F13001CAB223460499FFF774FE32
:101F600000BF681CC5B2BD42AFDB07B0BDE8F08F53
:101F700010B5044601210A48FFF70DF91021094860
:101F8000FFF70BF92112084801F068F9E1B20648A1
:101F900001F064F901210248FFF7FFF810BD0000CD
:101FA00000000240000802400030014010B5044625
:101FB00001210848FFF7EFF810210748FFF7EDF877
:101FC0002146064801F04AF901210248FFF7E5F8E9
:101FD00010BD000000000240000802400030014037
:101FE00010B5044601210848FFF7D5F8102107482D
:101FF000FFF7D1F8E1B2064801F030F901210248BB
:10200000FFF7CBF810BD00000000024000080240BE
:102010000030014010B502498879FFF7E1FF10BD9B
:10202000C803002010B500F043F804460120FEF775
:10203000A1FD052002F082FE0020FEF79BFD082195
:102040000846FEF707FE3D21112001F007FE86211C
:10205000172001F003FE7F21262001F0FFFD1E2145
:102060002D2001F0FBFD00212C2001F0F7FD8D213A
:102070002A2001F0F3FD3E212B2001F0EFFD02208C
:1020800002F05CFE2A2000F079FF0446052002F0F1
:1020900055FE0120FEF76EFD2A2000F06FFF04467A
:1020A0002B2000F06BFF0446642002F047FE10BDB9
:1020B00010B50120264908600A2002F03FFE0020EA
:1020C0002449C1F8AC020A2002F038FE0120204960
:1020D00008600A2002F032FE0F21012001F0BEFD4F
:1020E0000F21012001F0BAFDC82002F027FE3D219A
:1020F000112001F0B3FD052002F020FE1E212D204D
:1021000001F0ACFD052002F019FE00212C2001F0A9
:10211000A5FD052002F012FE8D212A2001F09EFD72
:10212000052002F00BFE7F21262001F097FD0520FF
:1021300002F004FE3E212B2001F090FD052002F06C
:10214000FDFD4021152001F089FD002010BD00009B
:10215000AC8240420080404200BF0549098801F03E
:1021600040010029F9D00249091D0880704700008C
:102170000044004000BFFEE77047000070B500213A
:1021800000230F22C4781CB3174C246804F4E064C5
:10219000C4F5E064C4F30721C1F10404E3B20A41C9
:1021A00044789C40E1B28478144021430C07210E0E
:1021B0000E4C05786155047804F01F050124AC40ED
:1021C00005786D11AD0005F1E025C5F8004109E085
:1021D000047804F01F050124AC40054D0678761103
:1021E00045F8264070BD00000CED00E000E400E082
:1021F00080E100E002490143024A1160704700009B
:102200000000FA050CED00E02DE9F04104460D4612
:1022100001F011F901F0E6F8012001F006F90720BC
:1022200001F011F90C2001F018F92012FFF794FFCA
:10223000E0B2FFF791FF2812FFF78EFFE8B2FFF739
:102240008BFF142000EB2420E1B2084400EB252092
:10225000E9B200EB0108404601F0DEF84FF4FA6005
:10226000FFF7DAF807460FB17E7A00E0FF26304626
:10227000BDE8F0812DE9F041054601F0DCF801F000
:10228000B1F8012001F0D1F8042001F0DCF80220BF
:1022900001F0E3F82846FFF75FFFEF1D384601F035
:1022A000BBF84FF4FA60FFF7B7F806460EB1747A40
:1022B00000E0FF242046BDE8F08170B501F0BBF8D6
:1022C00001F090F8012001F0B0F8032001F0BBF814
:1022D000012001F0C2F80526304601F09DF84FF4C8
:1022E000FA60FFF799F805460DB16C7A00E0FF241B
:1022F000204670BD10B5044601F09DF801F072F85B
:102300000120FFF729FF0020FFF726FF0020FFF73D
:1023100023FFC82002F012FD1448008800F400409A
:1023200008B313480078EF281AD1114840780128E3
:1023300016D10F488079072812D10D488078000601
:102340000B49C97800EB01400949097900EB0120EC
:10235000074949790844206000200449088010BDDD
:102360000020024908800120F9E700004200002017
:102370003802002070B501F05EF801F033F801205A
:1023800001F053F8032001F05EF8032001F065F836
:102390000726304601F040F84FF4FA60FFF73CF8AA
:1023A00005460DB16C7A00E0FF24204670BD0000A8
:1023B0002DE9F041054601F03EF801F013F8012047
:1023C00001F033F8032001F03EF80F2001F045F84A
:1023D0001327384601F020F84FF47A70FFF71CF805
:1023E0000446BCB1667AE07BA17B00EB012028802B
:1023F000607CA870A07C0006E17C00EB0140217DA0
:1024000000EB0120617D08446860E07D2872607EF9
:10241000687200E0FF26A6B929880FA001F03EFCF3
:10242000A97813A001F03AFC15A0696801F036FC08
:10243000687A4FF4165210FB02F114A001F02EFC42
:1024400007E03046FEF716FC8046414612A001F038
:1024500025FC3046BDE8F0810D0AC4A3BFE9D7EEE4
:10246000B4F3D6B8CEC6C8DDC1BF3D2564000000B8
:102470000D0AB6D4B1C8B5C8BCB63D25640000008D
:102480000D0AB5D8D6B73D25780000000D0AB2A8D0
:10249000CCD8C2CA3D2564000D0A25730000000097
:1024A00070B500F0C8FF00F09DFF012000F0BDFFF7
:1024B000032000F0C8FF052000F0CFFF09263046BA
:1024C00000F0AAFF4FF4FA60FEF7A6FF05460DB133
:1024D0006C7A00E0FF24204670BD2DE9F04781466C
:1024E0000D4616461F4600F0A6FF00F07BFF0120B8
:1024F00000F09BFF082000F0A6FF042000F0ADFFD5
:102500004846FFF729FE2812FFF726FEE8B2FFF73C
:1025100023FE3012FFF720FEF0B2FFF71DFE09F197
:102520000D0000EB2520E9B2084400EB2620F1B2B3
:1025300000EB010A504600F06FFF4FF4FA60FEF71F
:102540006BFF044664B194F80980E07AA17A00EB4D
:1025500001203880607B217B00EB0120788001E046
:102560004FF0FF084046BDE8F08700001CB5012190
:10257000022000F03FFC0120009000208DF80400B4
:1025800002208DF8070003208DF8050069460248F7
:10259000FEF789FD1CBD0000000402402DE9F0415A
:1025A00006460C4600F047FF00F01CFF012000F03B
:1025B0003CFF062000F047FF062000F04EFF3046AB
:1025C000FFF7CAFD2012FFF7C7FDE0B2FFF7C4FD19
:1025D00006F10D0000EB2420E1B200EB01084046BB
:1025E00000F01AFF4FF4FA60FEF716FF07460FB12E
:1025F0007D7A00E0FF252846BDE8F0812DE9F04115
:10260000064600F018FF00F0EDFE012000F00DFF7F
:10261000032000F018FF1D2000F01FFF212738467F
:1026200000F0FAFE4FF4FA60FEF7F6FE044634B10D
:10263000657AE07AA17A00EB0120308000E0FF2586
:102640003DB9E07AA27A00EB022107A001F026FB57
:1026500007E02846FEF70EFB8046414607A001F042
:102660001DFB2846BDE8F0810D0AD3D0D0A7D6B80F
:10267000CEC6B8F6CAFD3D25640000000D0A2573DC
:1026800000000000F0B587B0054600270821084685
:10269000FEF7E0FA00210D2001F0E0FA80210E2083
:1026A000FEF7D8FA93208DF8040020208DF805005D
:1026B00006A801AB022201A900900C2000F052F8FC
:1026C000064686B9002407E001A8005D285501A848
:1026D000005D4740601CC4B2042CF5DB01A8005D1E
:1026E000B84200D0FE2680210E2000F0BCFE30460D
:1026F00007B0F0BD2DE9F04387B006460F4690467F
:1027000099468DF804608DF80570002406E018F8ED
:10271000041001AAA01C1154601CC4B2062CF6DBE4
:10272000002407E019F8041001AA04F1080011546C
:10273000601CC4B2062CF5DB06A801AB0C2201A973
:1027400000900E2000F00EF805462DB9082000F08C
:1027500015FC00F0080000B9FE25284607B0BDE8CA
:10276000F08300002DE9FE4F0646884691469A46C2
:10277000DDF830B0FE2002900020019000900C2E79
:1027800006D00E2E09D1122001901020009005E0F5
:10279000772001903020009000E000BF00BF01983A
:1027A00040F08001022001F059FA80210420FEF758
:1027B00051FA0021012001F051FA80210A2000F095
:1027C00052FE002505E018F80510092001F046FA30
:1027D0006D1C4D45F7D33146012001F03FFA0C2E18
:1027E00003D180210D2000F03EFE2C4D00BF0420BF
:1027F00000F0C4FB04466D1E35B104F0010018B9A9
:10280000009820400028F2D080210D20FEF722FA07
:10281000002D37D0062000F0B1FB00F01B0070BB8C
:10282000002002900198204000F0010008B1FF2034
:1028300002900C2E26D10A2000F0A0FB04460C20AA
:1028400000F09CFB00F007072FB1601E07EBC000F3
:102850008BF8000003E0E006000E8BF8000004B9DE
:102860000124122C00DD1224002505E0092000F0CF
:1028700085FB0AF805006D1CA542F7D302E0FFE7CF
:10288000FE20029080210C2000F0EDFD00210120AF
:1028900001F0E4F90298BDE8FE8F0000A086010077
:1028A000F0B587B005460E4630208DF804008DF84F
:1028B00005500DF10602022101A8FEF773F906A8E2
:1028C00001AB042201A900900C20FFF74BFF074643
:1028D0006FB99DF81800902809D1002404E001A8E0
:1028E000005D3055601CC4B2102CF8DB00E0FE2700
:1028F000384607B0F0BD70B588B005460C460821D3
:102900000846FEF7A7F907210D2001F0A7F90321DA
:10291000142000F0A8FD8DF8085007A802AB012292
:1029200002A900900C20FFF71DFF064656B99DF83E
:102930001C00102806D19DF8080020709DF80900A1
:10294000607000E0FE26304608B070BD70B588B0FB
:10295000054693208DF8080070208DF809000020AE
:102960008DF80E0000240BE0295D02AAA01C115472
:102970009DF80E00295D48408DF80E00601CC4B221
:10298000042CF1DB0DF10F02072102A8FEF70AF972
:1029900008210846FEF75EF907A802AB092202A942
:1029A00000900C20FFF7DEFE06462EB99DF81C00B5
:1029B000182801D1002600E0FE26304608B070BD80
:1029C000F0B587B006460F46A0208DF804008DF8BC
:1029D00005600DF10602022101A8FEF7E3F806A842
:1029E00001AB042201A900900C20FFF7BBFE0546B5
:1029F0004DB99DF81800042805D19DF8040000F099
:102A00000F000A2800D0FE2515BB002404E0385D25
:102A100001A90855601CC4B2102CF8DB05AA1021CE
:102A200001A8FEF7BFF806A801AB122201A9009089
:102A30000C20FFF797FE05464DB99DF818000428B5
:102A400005D19DF8040000F00F000A2800D0FE25F3
:102A5000284607B0F0BD70473EB502A95220FFF7E7
:102A60004AFF04462148FFF70DFE04461F48FFF7C2
:102A70006DFF04461D4B1E4A02216020FFF73AFEFF
:102A8000044610211B48FDF7A2FBF4B90A2002F00E
:102A900055F919490220FFF793FF044654B917A0CE
:102AA0000C210B467822CDE9001091210020FFF780
:102AB000CDF914E015A00C210B467822CDE90010C9
:102AC00091210020FFF7C2F909E014A00C210B4668
:102AD0007822CDE9001091210020FFF7B7F94FF4DB
:102AE000FA7002F02BF920463EBD00005400002091
:102AF0005F000020D20300202B0000207772697451
:102B00006520737563636573730000007772697481
:102B100065206661696C6420200000006E6F206390
:102B200061726420200000001CB54E495220FFF75E
:102B3000E2FE4D4908700846007800287ED14B48D7
:102B4000FFF7A0FD484908704848FFF7FFFE4649D7
:102B5000087008460078002871D10846007820B92E
:102B600020214348FEF719FB03E020214048FEF7EF
:102B700012FB3E4B3F4A02216020FFF7BBFD3A4962
:102B8000087010213C48FDF722FB3B490220FFF76B
:102B900087FE354908701021002003F0C1F837493D
:102BA00008603548C07834498978CDE9001032484A
:102BB0004378027832A13148006801F07FF8102193
:102BC000002003F0ADF804463048C0782F498978DA
:102BD000CDE900102D484378027829A1204601F064
:102BE0006DF8264801682046FDF70EFB68B928A05D
:102BF0000C210B467822CDE9001073213C20FFF711
:102C000025F90020184908700CE023A00C210B4680
:102C10007822CDE9001073213C20FFF717F9FD2041
:102C20001149087015480168002003F067F800207A
:102C300012490860214603F061F801E002E00EE06D
:102C400000240CE020210A48FEF7A5FA4FF6FF7099
:102C500087237822732100900020FEF791FE02481E
:102C600000781CBD5C000020720000205400002091
:102C7000001002405F000020E203002074000020EA
:102C80002564256425642564000000002B000020D5
:102C90006F6B2020200000006661696C64000000FA
:102CA0003EB5002502A95220FFF725FE04462B4819
:102CB000FFF7E8FC04462948FFF748FE0446274B87
:102CC000274A02216020FFF715FD04461021254800
:102CD000FDF77DFA002C31D10A2002F02FF801E037
:102CE000681CC5B21F490220FFF76AFE08B10A2D11
:102CF000F6DB0A2D0BDD1CA00C210B467822CDE95A
:102D0000001091210020FFF7A1F8FE203EBD54B92C
:102D100019A00C210B467822CDE90010912100204A
:102D2000FFF794F814E010A00C210B467822CDE9AF
:102D3000001091210020FFF789F809E012A00C2172
:102D40000B467822CDE9001091210020FFF77EF894
:102D50004FF4FA7001F0F2FF2046D7E7540000204C
:102D60005F000020D20300207772697465206661DD
:102D7000696C6420200000007772697465207375A7
:102D800063636573730000006E6F2063617264207B
:102D9000200000001CB510495220FFF7ACFD0F4980
:102DA00008700846007850B90DA00C210B46782217
:102DB000CDE9001073210020FFF748F809E00BA0CF
:102DC0000C210B467822CDE9001073210020FFF77B
:102DD0003DF8024800781CBD5C0000207100002016
:102DE0006861766520636172640000006E6F206325
:102DF0006172640029B1064A12680243044B1A60EA
:102E000004E0034A12688243014B1A6070470000D5
:102E10003038024029B1064A12680243044B1A6056
:102E200004E0034A12688243014B1A6070470000B5
:102E30004038024029B1064A12680243044B1A6026
:102E400004E0034A12688243014B1A607047000095
:102E50002038024029B1064A12680243044B1A6026
:102E600004E0034A12688243014B1A607047000075
:102E70004438024029B1064A12680243044B1A60E2
:102E800004E0034A12688243014B1A607047000055
:102E900024380240F0B5002100220024022500263B
:102EA0000223324F3F6807F00C0121B1042905D0FD
:102EB000082937D105E02E4F076036E02D4F076017
:102EC00033E02A4F3F1F3F68C7F38056274F3F1F0D
:102ED0003F6807F03F036EB1264FB7FBF3F7DFF80B
:102EE0008CC0ACF1040CDCF800C0CCF3881C07FBF0
:102EF0000CF40CE01E4FB7FBF3F7DFF870C0ACF139
:102F0000040CDCF800C0CCF3881C07FB0CF4174F52
:102F10003F1F3F68C7F301477F1C7D00B4FBF5F7F7
:102F2000076002E0124F076000BF00BF0F4F3F680D
:102F300007F0F0010909104F7A5C0768D740476035
:102F40000A4F3F6807F4E051890A0B4F7A5C4768E3
:102F5000D7408760054F3F6807F46041490B064F33
:102F60007A5C4768D740C760F0BD0000083802406F
:102F70000024F40000127A000000002070B504461E
:102F8000002600200A4908607E2000EA440040F044
:102F900080052946074800F061F90021054800F046
:102FA0005DF9064601200449C1F8A802304670BD0B
:102FB000A8824042003800400080404200B587B0FF
:102FC00001210720FFF716FF01210803FFF742FF49
:102FD00001218803FFF71EFFE020059002208DF8F5
:102FE000180000208DF81A0003208DF81900012028
:102FF0008DF81B0005A94C48FEF755F8052207215E
:103000004948FEF798F8052206214748FEF793F84D
:10301000052211464448FEF78EF801210803FFF708
:1030200029FF00214FF48050FFF724FF0020ADF866
:1030300000004FF48270ADF802000020ADF80400EB
:103040000220ADF806000120ADF808004002ADF8FE
:103050000A000820ADF80C000020ADF80E00072093
:10306000ADF810006946314800F0DAF801212F4828
:1030700000F0CAF80220059001208DF81800002009
:103080008DF81A0003208DF8190001208DF81B001F
:1030900005A92548FEF707F802212348FEF77DF829
:1030A000012005908DF8180000208DF81A000320EB
:1030B0008DF8190001208DF81B0005A91A48FDF7AD
:1030C000F2FF01211848FEF766F810200590012054
:1030D0008DF8180000208DF81A0003208DF81900D3
:1030E00001208DF81B0005A91148FDF7DCFF102118
:1030F0000F48FEF750F82020059001208DF81800A9
:1031000000208DF81A0003208DF8190001208DF899
:103110001B0005A90648FDF7C6FF20210448FEF75D
:103120003AF807B000BD0000000002400030014046
:103130000008024000B587B001210220FFF75AFEC7
:1031400001218803FFF766FE4FF4604005900220DE
:103150008DF8180000208DF81A0003208DF8190052
:1031600001208DF81B0005A92548FDF79CFF0522CD
:103170000E212348FDF7DFFF05220F212048FDF730
:10318000DAFF05220D211E48FDF7D5FF0020ADF81E
:1031900000004FF48270ADF802000020ADF804008A
:1031A0000220ADF806000120ADF808004002ADF89D
:1031B0000A002820ADF80C000020ADF80E00072012
:1031C000ADF8100069460F4800F02AF801210D48BB
:1031D00000F01AF840F20B40059001208DF818001D
:1031E00000208DF81A0003208DF8190001208DF8B9
:1031F0001B0005A90248FDF756FF07B000BD0000FF
:10320000000402400038004021B1028842F0400230
:10321000028004E002884FF6BF731A4002807047B4
:1032200010B50022028802F441520B884C882343D7
:103230008C882343CC8823430C8923434C89234324
:103240008C892343CC8923431A430280838B4FF21A
:10325000FF74234083830B8A038210BD024600BFA4
:10326000108900F002000028FAD0918100BF108977
:1032700000F001000028FAD09089C0B27047000029
:1032800001461C48814201D2002070471A48814201
:1032900001D20820F9E71948814201D21020F4E751
:1032A0001748814201D21820EFE71648814201D227
:1032B0002020EAE71448814201D22820E5E713489C
:1032C000814201D23020E0E71148814201D238200A
:1032D000DBE71048814201D24020D6E70E48814208
:1032E00001D24820D1E70D48814201D25020CCE7DD
:1032F0005820CAE7004000080080000800C000080D
:103300000000010800000208000004080000060890
:103310000000080800000A0800000C0800000E0861
:1033200030B503460C461546002206E0184600F06C
:1033300007F844F822001B1D521CAA42F6D330BDE8
:1033400001460868704700002DE9F04704460E4624
:1033500017464FF009080025A946B4F1006F02D3C3
:1033600004F0030008B1BDE8F087FDF779FE002006
:10337000FDF7C4FD254604EB87091848854215D2A0
:1033800011E02846FFF7DCFF401C58B12846FFF744
:1033900077FF82460221FDF7C3FD8046B8F1090F91
:1033A00001D002E02D1D4D45EBD300BFB8F1090F50
:1033B0000CD108E020463168FDF72AFE092800D02C
:1033C00003E0241D361D4C45F4D300BF0120FDF75A
:1033D00095FDFDF713FE00BFC5E700000000FF1FCD
:1033E0007047000010B50B490968080EFEF7B4FEDF
:1033F00008480068C0F30740FEF7AEFE05480088A5
:10340000C0F30720FEF7A8FE02490878FEF7A4FEE5
:1034100010BD00003C00002010B504462012FEF74D
:103420009BFEE0B2FEF798FE10BD10B504462046A4
:10343000FEF792FE10BD10B5EF20FEF78DFE0120C5
:10344000FEF78AFE10BD10B50446C4F30720FEF750
:1034500083FEE0B2FEF780FE10BD10B504462046A4
:10346000FEF77AFE10BD70B505460C4600262846CC
:10347000FFF784FD064646EA0401284600F0EEFB0D
:1034800070BD00000CB50020019000903448006829
:1034900040F480303249086000BF3148006800F4D1
:1034A000003000900198401C0190009818B90198D4
:1034B000B0F5A04FF1D12A48006800F4003010B1F7
:1034C0000120009001E0002000900098012846D1E2
:1034D00023484030006840F0805021494031086066
:1034E0002048006840F440401E4908601C480830ED
:1034F00000681B49083108600846006840F4004035
:1035000008600846006840F4A05008601648091F8B
:103510000860081F006840F08070091F086000BF45
:103520000F48006800F000700028F9D040F20570E4
:103530000E4908600A480830006820F00300084976
:10354000083108600846006840F00200086000BFCB
:1035500003480830006800F00C000828F8D10CBDC2
:10356000003802400070004008544007003C024010
:103570007CB505463021002002F0D2FB04462A46E5
:103580000DA1204600F09AFB4FF6FF70A023782291
:10359000822100900020FEF7F3F90C2003467822E8
:1035A0008221CDE900040020FEF750FC21460020D6
:1035B00002F0A4FB00247CBD6572726F7220636F01
:1035C0006465203A25640000042808D14FF0E0210A
:1035D000096941F004014FF0E022116107E04FF06A
:1035E000E021096921F004014FF0E02211617047E8
:1035F0007047000010B51548006840F4700013498A
:1036000008601348006840F001001149086000207C
:103610000F49083108600E4800680E4908400C49FF
:1036200008600D48091D0860081F006820F480200C
:10363000091F0860002006490C310860FFF722FFCF
:103640004FF0006001498039086010BD88ED00E04E
:1036500000380240FFFFF6FE1030002410B50121B3
:10366000354800F0F6F8002864D034480078401C53
:1036700032490870084600780A2190FBF1F201FBFC
:10368000120018B9112401F021FC04462C480078DE
:1036900018B9204602F062FB06E0294800780128AC
:1036A00002D1204602F01AFD2448007864280BDB82
:1036B00024480078032804DB23480088401C224962
:1036C000088000201D4908702048007820B120485B
:1036D0000088401C1E4908801D480088B0F5FA7F0C
:1036E00008DB1B480088B0F57A7F03DA022017490F
:1036F000087009E016480088B0F57A7F04DB0020E6
:1037000013490880114908700F480088032806DB18
:10371000002002F0B3FD00200A49087006E00A48C4
:103720000088002802DD012002F0A8FD01210248E6
:1037300000F080F810BD00000004004044000020AC
:103740003700002030000020480000203600002014
:10375000460000207FB505460C4601210220FFF7F8
:1037600059FB0295ADF804400020ADF80600ADF815
:103770000C0001A90D4800F089F8012211460B4800
:1037800000F078F80121094800F057F81D208DF865
:10379000000000208DF8010003208DF802000120B8
:1037A0008DF803006846FEF7E9FC7FBD0004004089
:1037B00010B50121094800F04CF868B108480088AC
:1037C00040F40040064908800121044800F032F826
:1037D0000021024800F031F810BD00000014004044
:1037E000420000207FB505460C4601212020FFF74E
:1037F00011FB0195ADF800400020ADF80800ADF8D0
:10380000020069460A4800F041F8012211460848C2
:1038100000F030F837208DF80C0001208DF80D00F5
:103820008DF80E008DF80F0003A8FEF7A7FC7FBDF2
:1038300000140040CA430282704721B1028842F05E
:103840000102028004E002884FF6FE731A400280F3
:10385000704730B50246002000230024158A05EA8F
:103860000103958905EA010413B10CB1012000E0C0
:10387000002030BD1AB183890B43838102E0838924
:103880008B438381704741627047000000220288A9
:10389000184B98420ED0184B98420BD0B0F1804F85
:1038A00008D0164B984205D0154B984202D0154BC4
:1038B000984204D14FF68F731A404B881A43124B2B
:1038C000984207D0114B984204D04FF6FF431A405C
:1038D0000B891A4302804B68C3620B880385054B32
:1038E000984202D0044B984201D18B7A038601237F
:1038F0008382704700000140000401400004004042
:1039000000080040000C004000100040001400407F
:1039100010B50A48008800F0080010B107488088F8
:10392000C4B240F22551054800F0D6F820B140F26B
:103930002551024800F03CF810BD00000010014085
:1039400010B540F22551164800F0C6F800B31448EF
:1039500000F07CF9C4B21348008800F40040B8B904
:1039600010480088B0F5C87F13DA00210E48FFF731
:103970008AFF0C48008818B901210B48FFF75DFF4A
:10398000084801880088401C064A108007484454B3
:1039900005E00448008840F400400249088010BD5A
:1039A0000044004042000020001400403802002083
:1039B00010B50022002340F66A14A14200D100BFD6
:1039C0000A1201249440A3B2DC43048010BD21B14B
:1039D000828942F40052828104E082894DF6FF73AD
:1039E0001A4082817047000010B504463248844274
:1039F00008D101211020FFF73DFA00211020FFF728
:103A000039FA57E02D48844209D101214804FFF7D3
:103A100011FA00214FF40030FFF70CFA4AE0284871
:103A2000844209D101218804FFF704FA00214FF4F0
:103A30008020FFF7FFF93DE02248844209D10121AF
:103A4000C804FFF7F7F900214FF40020FFF7F2F95F
:103A500030E01D48844209D101210805FFF7EAF949
:103A600000214FF48010FFF7E5F923E01748844266
:103A700008D101212020FFF7FDF900212020FFF7C8
:103A8000F9F917E01248844209D101218807FFF7AC
:103A9000D1F900214FF08040FFF7CCF90AE00D4842
:103AA000844207D101214005FFF7C4F900216005D8
:103AB000FFF7C0F910BD00000010014000440040B5
:103AC00000480040004C00400050004000140140FD
:103AD00000780040007C004070B5024600240023BE
:103AE0000025002040F66A16B14200D100BFC1F3A4
:103AF000421501F01F03012606FA03F3012D02D13E
:103B00009689334006E0022D02D1168A334001E047
:103B1000968A33400C12012606FA04F416883440C3
:103B200013B10CB1012000E0002070BDF0B50346D8
:103B3000002400260025002040F66A17B94200D173
:103B400000BF1846C1F3421401F01F06012707FA0F
:103B500006F5012C01D10C3004E0022C01D110300B
:103B600000E014301AB107682F43076002E00768CD
:103B7000AF430760F0BD00002DE9FF4705460E4644
:103B80000024A14600BFA046B08900B100BF2C8A26
:103B900024F44054F08804432C82AC8941F20C6038
:103BA0008443B08831890843718908430443AC8158
:103BB000AC8A24F44074B0890443AC826846FFF7B1
:103BC00069F92048854202D01F48854202D1DDF8BC
:103BD0000C9001E0DDF80890A88900F4004040B1A5
:103BE00009EBC90000EB091031684900B0FBF1F79F
:103BF00007E009EBC90000EB091031688900B0FB50
:103C0000F1F76420B7FBF0F004012009642101FB07
:103C10001078A88900F4004040B1322000EBC800C1
:103C2000B0FBF1F000F00700044308E0322000EBA5
:103C300008106421B0FBF1F000F00F0004432C8168
:103C4000BDE8FF870010014000140140014688884C
:103C5000C0F30800704700BFFEE7000070B50446DF
:103C60000D467E2000EA44060020094908603146DE
:103C70000848FFF7F3FA29460648FFF7EFFA012054
:103C80000549C1F8A802052001F058F870BD0000F0
:103C9000A882404200380040008040420FB4054BEB
:103CA00010B503A9044A029800F0DEF810BC5DF8D4
:103CB00014FB00004D4E0008140000200FB4084B08
:103CC00010B504A902AA039800F0CEF8044602A990
:103CD000002000F060FC204610BC5DF814FB0000E2
:103CE0009745000802E008C8121F08C1002AFAD14F
:103CF00070477047002001E001C1121F002AFBD16C
:103D0000704700002DE9FF5FDDE90220010DDDF8BD
:103D100038B0024318D044F61050A1F2FF314143AD
:103D20000D140F98012820D0A5EB0B00401C5FEA72
:103D3000000A4FF00004474EDFF81C91A0465046A1
:103D400016D5CAF1000728E00F98012443A20128E4
:103D500008D0002100980F9BC0E90021C0E9024370
:103D6000BDE8FF9F6FEA0B01F4E7CBF10000DEE74F
:103D7000074612E0F80707D0224633464046494638
:103D8000FCF747FB804689462246334610461946D3
:103D9000FCF73FFB04460E467F10002FEAD1DDE919
:103DA0000201BAF1000F42464B4602DAFCF731FB42
:103DB00001E0FCF7A0FB04460E460022284BFCF76E
:103DC00021FC03D84FF0FF30014607E00022254BCD
:103DD00020463146FCF776FAFCF7FCFB102409E09C
:103DE000002C0ADB0A220023FCF73BFA019B30324D
:103DF0001A55641E50EA0102F2D1641C019AC4F102
:103E0000110314440F9A012A03D0012208430DD153
:103E10000AE0084304D000204FF0110B0F9080E718
:103E2000A3EB0B056D1E0DE05B4504DD4FF00002BA
:103E300005F1010504E003DA4FF00002A5F10105E8
:103E4000002AECD000980F99C0E90231C0E9004582
:103E500086E70000000024400000F03F3000000032
:103E60000000F0430000E03F2DE9FF4F95B09B4676
:103E70008946064600250FE2252877D100242746EB
:103E8000F84A0121059400E0044316F8013F203B65
:103E900001FA03F01042F7D130782A2811D06FF0E0
:103EA0002F033078A0F13002092A16D8059A44F081
:103EB000020402EB820203EB42021044761C0590DE
:103EC000EFE759F8042B0592002A03DA504244F434
:103ED0000054059044F00204761C30782E2816D148
:103EE00016F8010F44F004042A280DD06FF02F02B9
:103EF0003078A0F13003092B09D807EB870302EBD8
:103F00004303C718761CF3E759F8047B761C307816
:103F10006C280FD006DC4C2817D068280DD06A28F2
:103F200014D104E0742810D07A280FD10DE044F4A5
:103F300000140AE044F4801401E044F44014727860
:103F4000824202D104F58014761C761C30786628F3
:103F50000BD013DC582877D009DC002875D0452811
:103F6000F6D04628F4D047281AD19DE118E06328FE
:103F700035D0642879D0652812D195E1702873D0A6
:103F800008DC6728F1D069286FD06E280DD06F2823
:103F900006D1B5E073282CD0752875D0782874D058
:103FA0005A46179990476D1C75E1C4F302500228D8
:103FB00009D003280DD0D9F8001004280DD00D60C9
:103FC00009F1040967E1D9F80010EA17C1E90052C4
:103FD000F6E7D9F800100D80F2E70D70F0E719F858
:103FE000041B8DF8001000208DF80100EA46012026
:103FF00003E059F804AB4FF0FF3061074FF00001C8
:1040000002D40DE008F101018846B9420FDA80457B
:10401000F8DB1AF808100029F4D108E008F10101D2
:1040200088468142FADB1AF808100029F6D1059873
:104030005B46A0EB080721463846179A00F094FA31
:10404000284400EB080507E04DE029E10DE01AF8EF
:10405000010B5A4617999047B8F10108F7D25B4611
:1040600021463846179A13E142E00A220092C4F32F
:1040700002524FF0000A022A08D059F804CB032A52
:104080004FEAEC710AD00DE029E02AE009F10701BE
:1040900021F00702F2E802C1914609E00FFA8CFC18
:1040A0004FEAEC71042A03D14FFA8CFC4FEAEC7111
:1040B000002907DA0A460021DCF1000C61EB02015D
:1040C0002D2202E0220504D52B228DF804200122A6
:1040D00003E0E20701D02022F7E7904659E00A21E9
:1040E00002E010220DE010214FF0000A00910BE0D9
:1040F00010224FF0000A44F004040827009203E065
:1041000008224FF0000A0092C4F30252022A05D09E
:1041100059F804CB0021032A08D009E009F107016E
:1041200021F00702F2E802C1914605E01FFA8CFC7B
:10413000042A01D10CF0FF0C4FF00008220728D50B
:10414000702806D0009B83F0100353EA0A0305D0C1
:104150000EE040228DF80420012208E05CEA010212
:1041600006D030228DF804208DF8050002229046FA
:10417000009B83F0080353EA0A030AD15CEA0102B8
:1041800001D1620705D530228DF804204FF00108D7
:104190007F1E582804D034A003900EA802900DE092
:1041A00036A0F9E753466046009AFCF75AF8844671
:1041B0000398825C0298401E029002705CEA010043
:1041C000F0D1029806A9081A00F1200A600702D56A
:1041D00024F4803400E00127574502DDA7EB0A00F4
:1041E00000E0002000EB0A01009005984144401ACD
:1041F0000590E00306D45B462146179A059800F027
:10420000B3F90544002706E001A85A46C05D179996
:1042100090476D1C7F1C4745F6DBE0030CD55B46E1
:104220002146179A059800F09FF9054404E03020D4
:104230005A46179990476D1C0099481E0090002916
:10424000F5DC08E0029802995A460078491C029170
:10425000179990476D1CBAF10001AAF1010AF1DC2F
:1042600065E100000928010030313233343536373A
:1042700038396162636465660000000030313233B2
:104280003435363738394142434445460000000052
:1042900000F058F90544761C307800287FF4ECAD26
:1042A00019B02846BDE8F08F620700D4062709F14F
:1042B000070222F0070CFCE80223E14603F0004865
:1042C0005FEA080C02D00FF2702C0DE05FEA045C8C
:1042D00002D50FF2682C07E05FEAC47C02D00FF22F
:1042E000602C01E0AFF2700C4FF0FF3823F0004378
:1042F000CDF850C065280CD006DC452809D04628EA
:104300001DD047283DD13DE0662818D067287ED1D2
:1043100038E00021112F01DB112000E0781CCDE9ED
:10432000000106A90EA8FFF7EDFCDDE90F010E9ACA
:1043300003910021009207F1010A04914DE04FF032
:1043400000400097CDE9011006A90EA8FFF7DAFC9E
:10435000DDE90F0203920E9B11990022DDF80CA0FB
:104360000093049211B9791C00EB010AB7EB0A0023
:1043700004D4C0F1FF3007F1010A0490AAEB070052
:10438000019044E0012F00DA01270021112F01DD07
:10439000112000E03846CDE9000106A90EA8FFF77C
:1043A000B1FCDDE90F010E9A039100210491009206
:1043B000BA4621070CD40399514500DA8A46BAF16E
:1043C000010F05DD009AAAF10101515C302908D0E6
:1043D000B84202DA10F1040F06DA0121CDE901102A
:1043E00015E0AAF10101E9E7002805DC0499014480
:1043F0000491AAEB000102E0411C514500DD8A4610
:104400000499401A401C01904FF000400290200790
:1044100004D40198504501DBCDF8048000208DF8CC
:104420004F0002980DF14F07B0F1004F25D02B201F
:104430000E9002984FF0020800280CDA40420290D9
:104440002D200E9007E00A210298FBF7F4FE303190
:10445000029007F8011DB8F10001A8F10108F2DC93
:1044600002980028EFD1791E0E980870307800F07D
:10447000200040F0450007F8020D12A8C01B00F113
:1044800007081498007800B1012000EB0A01019898
:1044900001EBE07105984144401A401E0590E0038D
:1044A00006D45B462146179A059800F05DF805444E
:1044B0001498007818B15A46179990476D1CE0037C
:1044C00024D55B462146179A059800F04DF805441F
:1044D0001CE00498002807DBDDE90301884203DDC6
:1044E0000098405C179901E0179930205A46904790
:1044F000049805F10105401C04900198401E0190AC
:1045000004D12E205A46179990476D1CBAF100012C
:10451000AAF1010ADDDC05E017F8010B5A461799EC
:1045200090476D1CB8F10001A8F10108F4DC5B466E
:104530002146179A0598ABE62D0000002B000000DD
:10454000200000002DE9F041044600251E461746D4
:10455000880404D405E039462020B0476D1C641E51
:10456000F9D52846BDE8F0812DE9F0410446002543
:104570001E469046C80301D5302700E02027880456
:1045800004D505E041463846B0476D1C641EF9D598
:104590002846BDE8F0810A68531C0B601070704714
:1045A0001CB52E480078012827D12D492D4801F04F
:1045B00089FBB8B92CA00C210B467822CDE900105C
:1045C00091210020FDF742FC2CA00C210B46782203
:1045D000CDE900102D210020FDF738FC02201F49F5
:1045E000087035E02BA00C210B467822CDE9001095
:1045F00082210020FDF72AFC2AE0184800780228D2
:1046000026D12948007828B9FCF738F90020134949
:10461000087010E02448007801280CD123A00C2158
:104620000B467822CDE900102D210020FDF70EFC6D
:1046300000200A49087023A00C210B467822CDE9FE
:1046400000102D210020FDF701FC00200349087017
:1046500003480021016001711CBD000033000020EF
:104660001D00002026000020706C656173652070BD
:10467000726573732066696E67657200706C656140
:10468000736520707265737320656E746572202087
:104690000000000070617373776F7264206572723E
:1046A0006F722020202020003400002066696E6791
:1046B00065727072696E7420697320626164212171
:1046C000210000006164642066696E676572707223
:1046D000696E74206F6B2020000000001CB501245F
:1046E0002F480078012837D12E492F48FBF78CFD41
:1046F000002826D1FEF7B0F904466CB902202849FB
:1047000008702AA00C210B467822CDE900104B211D
:104710000020FDF79BFB09E028A00C210B46782226
:10472000CDE900104B210020FDF790FB27A00C21C4
:104730000B467822CDE900103C210020FDF786FBD6
:1047400029E027A00C210B467822CDE900103C215E
:104750000020FDF77BFB1EE01148007802281AD1EB
:10476000FEF7E2F968B923A00C210B467822CDE9C7
:1047700000103C210020FDF769FB0020084908706B
:1047800009E022A00C210B467822CDE900103C2143
:104790000020FDF75BFB03480021016001711CBD97
:1047A000320000201D0000202600002020202020B4
:1047B000202020202020202020000000706C656137
:1047C0007365207265706C6179000000706C6561C2
:1047D000736520656E74657220616E6761696E0035
:1047E00070617373776F7264206572726F722020CC
:1047F00020000000616464206963206361726420AA
:104800007375636365737320000000006164642046
:1048100069632063617264206661696C64000000F2
:104820001CB52F480078012830D12E492E4801F0C0
:1048300049FA00BB2DA00C210B467822CDE90010CF
:104840000F210020FDF702FB2DA00C210B46782242
:10485000CDE900101E210020FDF7F8FA4FF6FF7099
:10486000A0238222114600900020FDF789F8022043
:104870001B4908702EE027A00C210B467822CDE9B9
:1048800000101E210020FDF7E1FA23E01448007813
:1048900002281FD124A00C210B467822CDE900105C
:1048A0000F210020FDF7D2FA15A00C210B4678222B
:1048B000CDE900101E210020FDF7C8FA09490A4879
:1048C000FBF7B0FC012208491C48FEF73DFD002023
:1048D0000349087003480021016001711CBD0000FC
:1048E000310000201D00002026000020696E707538
:1048F00074206E65772070617373776F7264000047
:1049000020202020202020202020202020202020A7
:104910002020000070617373776F7264206572727B
:104920006F7220202020200070617373776F726493
:10493000206D6F646966206F6B20000000000E0818
:104940001CB501210220FEF755FA04200090012039
:104950008DF8040000208DF8060002208DF8070075
:1049600003208DF8050069460348FCF79CFB0421F1
:104970000148FCF712FC1CBD0004024010B5822463
:1049800035E04FF400611B48FCF707FC4FF4E06191
:104990001848FCF700FC0A2000F0D0F94FF48061C1
:1049A0001448FCF7FAFB4FF430611248FCF7F3FBB4
:1049B0000A2000F0C3F94FF400710E48FCF7EDFB3C
:1049C0004FF450610B48FCF7E6FB0A2000F0B6F903
:1049D0004FF480710748FCF7E0FB4FF46061054835
:1049E000FCF7D9FB0A2000F0A9F9601EC4B2002C24
:1049F000C7DC10BD001002401CB5464800780B28EB
:104A00001DD14549454801F05DF968B944A00C2124
:104A10000B467822CDE900100F210020FDF716FA91
:104A20000C203C4908706FE042A00C210B46782214
:104A3000CDE900101E210020FDF708FA64E035489A
:104A400000780C2825D13448007830383E49087069
:104A50003EA00C210B467822CDE900101E2100203B
:104A6000FDF7F4F93EA00C210B467822CDE90010A9
:104A700091210020FDF7EAF90C2001230090324833
:104A8000027891215420FDF797F90D2021490870F3
:104A90003AE0204800780D2836D13548007810BB20
:104AA000012129480078FDF7AFFB3249087008461C
:104AB000007850B930A00C210B467822CDE90010C7
:104AC00091210020FDF7C2F909E031A00C210B462D
:104AD0007822CDE9001091210020FDF7B7F90020E0
:104AE0000C49087010E02248007801280CD12EA053
:104AF0000C210B467822CDE9001073210020FDF730
:104B0000A5F90020034908700348002101600171E4
:104B10001CBD0000330000201D00002026000020E6
:104B2000696E7075742077616E742064656C2046C0
:104B30005200000070617373776F72642065727247
:104B40006F722020202020004100002070726573C9
:104B50007320656E74657220616E67696E20000057
:104B6000737572652064656C207468653A00000096
:104B7000340000204000002064656C2066696E6788
:104B800065727072696E74206F6B202000000000E7
:104B900064656C2066696E6765727072696E7420F8
:104BA0006661696C640000006D656E6368696E65BE
:104BB0002069732062616421212100001CB500245A
:104BC0002F4800780B2837D12E492F48FBF71CFBC4
:104BD000002826D1FEF764F804466CB90C20284959
:104BE00008702AA00C210B467822CDE900104B2139
:104BF0000020FDF72BF909E028A00C210B467822B4
:104C0000CDE900104B210020FDF720F927A00C2151
:104C10000B467822CDE900103C210020FDF716F963
:104C200029E027A00C210B467822CDE900103C2179
:104C30000020FDF70BF91EE0114800780C281AD16E
:104C4000FDF772FF68B123A00C210B467822CDE955
:104C500000103C210020FDF7F9F8002008490870F9
:104C600009E022A00C210B467822CDE900103C215E
:104C70000020FDF7EBF803480021016001711CBD25
:104C8000320000201D0000202600002020202020CF
:104C9000202020202020202020000000706C656152
:104CA0007365207265706C6179000000706C6561DD
:104CB000736520656E74657220616E6761696E0050
:104CC00070617373776F7264206572726F722020E7
:104CD0002000000064656C206963206361726420B9
:104CE00073756363657373200000000064656C2056
:104CF00069632063617264206661696C640000000E
:104D000010B504466FF00400FEF75EFCE11704EBFB
:104D10005171C1F3C701074A11701046007800EBCA
:104D20004001C1EBC0104FF6FF7101EAC00002491B
:104D3000088010BD100000201200002070B504464D
:104D40004FF4077094FBF0F0C6B24FF4077094FB79
:104D5000F0F100FB114085B205E04FF4077000F060
:104D60002FF8701EC6B2002EF7D115B1284600F0FC
:104D700027F870BD0146114A12784A434FF0E023EC
:104D80005A6100229A611A46126942F001021A61C0
:104D900000BF4FF0E022106900F001021AB100F4E8
:104DA0008032002AF5D04FF0E022126922F0010291
:104DB0004FF0E0231A6100229A6170471000002032
:104DC0000146114A12884A434FF0E0235A610022FB
:104DD0009A611A46126942F001021A6100BF4FF04F
:104DE000E022106900F001021AB100F48032002ABA
:104DF000F5D04FF0E022126922F001024FF0E023DB
:104E00001A6100229A617047120000201CB501212E
:104E10001020FDF7EFFF01208DF8040000208DF831
:104E200006004FF47060009001208DF80700032009
:104E30008DF8050069460448FCF735F94FF47061B8
:104E40000148FCF7AAF91CBD0010024000BF054A4A
:104E5000128802F04002002AF9D0C2B2014B9A80B7
:104E600070470000001001401CB501210820FDF72B
:104E7000C1FF4FF47060009001208DF80400002005
:104E80008DF8060001208DF8070003208DF805003D
:104E900069460D48FCF707F94FF470400090002078
:104EA0008DF8040002208DF8070069460648FCF7DB
:104EB000FAF84FF470610448FCF76FF94FF4704151
:104EC0000148FCF768F91CBD000C024010B5112424
:104ED0005B48FCF753F90F21B1EB102F7ED00A206D
:104EE000FFF72CFF5648FCF749F90F21B1EB102FC3
:104EF00075D054480078002871D14FF48071504823
:104F0000FCF74BF94FF460614D48FCF744F94C480D
:104F1000FCF734F9000A112806D0212806D04128D0
:104F200006D0812808D105E00C2405E00B2403E01D
:104F3000002401E00A2400BF00BF4FF40071404884
:104F4000FCF72BF94FF450613D48FCF724F93C483D
:104F5000FCF714F9000A122806D0222806D04228AD
:104F600006D0822808D105E00D2405E0032403E0E3
:104F7000022401E0012400BF00BF4FF480613048EB
:104F8000FCF70BF94FF430612D48FCF704F92C487D
:104F9000FCF7F4F8000A142806D0242806D0442888
:104FA00006D0842808D105E00E2405E0062403E09D
:104FB000052401E0042400BF00BF4FF40061204835
:104FC000FCF7EBF84FF4E0611D48FCF7E4F81C48EF
:104FD000FCF7D4F8000A182809D001E02AE02CE0F8
:104FE000282806D0482806D0882808D105E00F24B4
:104FF00005E0092403E0082401E0072400BF00BF06
:105000004FF470610E48FCF7C8F84FF470410C483B
:10501000FCF7C1F80A48FCF7B1F80F21B1EB102FEB
:1050200004D108480078012800D111240120054945
:10503000087002E0002003490870E0B210BD0000D3
:10504000000C0240500000201CB501211020FDF78B
:10505000D1FE01208DF8040000208DF806006020AC
:10506000009001208DF8070003208DF805006946A7
:105070000348FCF718F860210148FCF78EF81CBDC6
:10508000001002401FB50020039002904FF4A06072
:10509000FDF7B0F8A820FFF733FE4FF4E13000F041
:1050A0005BFF4FF4614000F0AFFFFDF75FFAFFF7E1
:1050B000CBFFFFF745FCFFF7D7FEFFF7A7FEFCF796
:1050C00071F8FDF77BFFFEF735F8FBF76DFBFCF79A
:1050D000A9FF42F2CF016320FEF73CFB002000F065
:1050E0005BFDFE480021016001710122FC49FD4881
:1050F000FEF716F9FCF76CFC0020FB490880FBA0CA
:1051000010210B46C822CDE9001000210846FCF70B
:105110009DFE0021084600F0EDFEF7A00C210B4695
:105120007822CDE9001064210020FCF78FFE27E0F3
:105130000398401CC0B203904FF46170FFF7FEFD6E
:105140004FF6FF70A0237822642100900020FCF726
:1051500017FCEEA00C210B467822CDE9001073213C
:105160000020FCF773FE6420FFF7E8FDEBA00C21A4
:105170000B467822CDE9001082210020FCF766FE64
:10518000EC48FDF7B7F810B103980328D0DB03987B
:10519000032825DAE848FDF70BF94FF6FF70A02346
:1051A0007822642100900020FCF7EAFBE3A00C21A8
:1051B0000B467822CDE9001073210020FCF746FE53
:1051C000E348FDF71BFA0C2003230090E048028817
:1051D00073216420FCF7F0FD0020DE49087017E021
:1051E0004FF6FF70A0237822642100900020FCF786
:1051F000C7FBD9A00C210B467822CDE90010732102
:105200000020FCF723FE0120D8490870D14908701E
:1052100000BF0021D648FEF710FB4FF6FF70A02319
:105220008022002100900846FCF7AAFB0121D0480B
:10523000FEF703FBA948002101600171FDF77AFF29
:10524000FCF7F0FE012001F019F86420FFF776FD6D
:10525000002001F013F80020C649087089E0C64814
:105260000068C043C549C1F89802C54800780128C4
:1052700003D10020C34908707CE0BC48007860B9C5
:10528000C1A00C210B467822CDE90010642100203A
:10529000FCF7DCFD00F0BAFD25E0B44800780128F9
:1052A0000AD1BCA00C210B467822CDE90010642164
:1052B0000020FCF7CBFD16E0AC480078022812D1A4
:1052C000B7A00C210B467822CDE900106421002004
:1052D000FCF7BCFDFDF728FC28B9B448007810B9EC
:1052E0000120B2490870B148007818B96420FFF76E
:1052F00025FD20E0AD48007801280CD1ACA00C21A0
:105300000B467822CDE9001091210020FCF79EFD8C
:1053100000F03EFD0FE0A548007802280BD1A8A0C0
:105320000C210B467822CDE9001091210020FCF7DA
:105330008DFDFFF723FBA7480078022819D1854887
:10534000007828B9FBF79AFA0020A249087010E00B
:105350008048007801280CD19FA00C210B467822B0
:10536000CDE9001073210020FCF770FD0020994961
:10537000087074E7002002907E490870FDF7DAFE9D
:10538000FCF750FE4FF6FF70A02382220021009010
:105390000846FCF7F5FA96A00C210B467822CDE9D9
:1053A00000100F210020FCF751FD96A00C210B46A8
:1053B0007822CDE900101E210020FCF747FD96A0C1
:1053C0000C210B467822CDE900102D210020FCF79E
:1053D0003DFD96A00C210B467822CDE900103C2122
:1053E0000020FCF733FD96A00C210B467822CDE976
:1053F00000104B210020FCF729FD384800210160F6
:1054000001718DE35C480068C0435C49C1F89802B3
:105410005B48007800B9FCE65A48007801283AD188
:105420004CF218608B49088071A00C210B46782241
:10543000CDE900100F210020FCF708FD4FF6FF70AA
:10544000844908806FA00C210B467822CDE900101A
:105450001E210020FCF7FAFC6FA00C210B467822DD
:10546000CDE900102D210020FCF7F0FC6FA00C21ED
:105470000B467822CDE900103C210020FCF7E6FC29
:105480006FA00C210B467822CDE900104B210020A3
:10549000FCF7DCFC41E33B48007802281CD14CF2CD
:1054A00018606C49088057A00C210B467822CDE982
:1054B00000101E210020FCF7C9FC4FF6FF70654963
:1054C00008804BA00C210B467822CDE900100F215B
:1054D0000020FCF7BBFCBFE0E0E000001D00002066
:1054E0002600002000000E084C000020312E38203D
:1054F000544654205350490068616E646C652041E5
:10550000533630382E2E2E2E000000006E6F742081
:10551000636865636B20617336303800746573743B
:1055200020636F6E6E65637465204153363038209A
:10553000000000003C0000209C000020636F6E6EA5
:10554000656374696F6E206F6B212121000000007C
:105550001A00002034000020636F6E6E656374696A
:105560006F6E206661696C64212121001C0000209F
:1055700000040040300000209802424200004242F5
:105580003700002038000020757365206669677554
:1055900072650000757365206B65792020202000FE
:1055A00075736520696320636172640036000020B2
:1055B0006F70656E20646F6F7220202020202000A5
:1055C000636C6F736520646F6F7220202020202031
:1055D000000000003300002066696E67657270721B
:1055E000696E7420697320626164212121000000CA
:1055F000312E6D6F6469662070617373776F7264AA
:1056000000000000322E6164642066696E67657276
:105610007072696E74000000332E616464206963E7
:10562000206361726420202020000000342E646515
:105630006C2066696E6765727072696E7400000036
:10564000352E64656C2069632063617264202020BC
:10565000200000004E000020AFF244000C210B4659
:105660007822CDE900102D210020FCF7EFFBAFF2EE
:1056700044000C210B467822CDE900103C2100208B
:10568000FCF7E4FBAFF248000C210B467822CDE991
:1056900000104B210020FCF7D9FB3EE2F7480078D0
:1056A00003283FD14FF6FF70F5490880AFF2C000E4
:1056B0000C210B467822CDE900100F210020FCF7C9
:1056C000C5FBAFF2C0000C210B467822CDE90010DB
:1056D0001E210020FCF7BAFBAFF2B0000C210B46F4
:1056E0007822CDE900103C210020FCF7AFFBAFF29F
:1056F000B0000C210B467822CDE900104B21002090
:10570000FCF7A4FB4CF21860DD490880AFF2F8000A
:105710000C210B467822CDE900102D210020FCF74A
:1057200095FBFAE1D548007804283FD14FF6FF7089
:10573000D3490880AFF248100C210B467822CDE9FE
:1057400000100F210020FCF781FBAFF248100C2164
:105750000B467822CDE900101E210020FCF776FBD5
:10576000AFF24C100C210B467822CDE900102D2110
:105770000020FCF76BFBAFF238100C210B467822AF
:10578000CDE900104B210020FCF760FB4CF21860C3
:10579000BB490880AFF26C100C210B467822CDE992
:1057A00000103C210020FCF751FBB6E1B348007823
:1057B00005283FD14FF6FF70B1490880AFF2D010F5
:1057C0000C210B467822CDE900100F210020FCF7B8
:1057D0003DFBAFF2D0100C210B467822CDE9001032
:1057E0001E210020FCF732FBAFF2D4100C210B4637
:1057F0007822CDE900102D210020FCF727FBAFF225
:10580000D4100C210B467822CDE900103C21002059
:10581000FCF71CFB4CF2186099490880AFF2E010CD
:105820000C210B467822CDE900104B210020FCF71B
:105830000DFB72E1914800780B2821D10298F8B94C
:10584000012002904FF6FF708D4908806423822268
:10585000002100900846FCF793F88AA00C210B4623
:105860007822CDE900100F210020FCF7EFFA01208B
:1058700089490870002089490870894908704CE1FD
:105880007E4800780B2809D18648007801288CD101
:10589000002084490870FEF7C3FF3EE17748007896
:1058A0000C282BD1029848BB012002904FF6FF70C4
:1058B0007349088064238222002100900846FCF787
:1058C0005FF870A00C210B467822CDE900100F2163
:1058D0000020FCF7BBFA74A00C210B467822CDE91E
:1058E00000101E210020FCF7B1FA00206A49087060
:1058F0006A49087001206A4908700EE15F48007823
:105900000C2809D167480078012892D10020654908
:105910000870FEF745FE00E1584800780D282CD1AC
:10592000029850BB012002904FF6FF705449088046
:1059300064238222002100900846FCF721F851A040
:105940000C210B467822CDE900100F210020FCF736
:105950007DFA5AA00C210B467822CDE900101E21B9
:105960000020FCF773FA00204B49087001204B49D6
:10597000087000204A490870CFE0404800780D28A0
:105980000BD1FDF707FA47480078012885D10020A0
:1059900044490870FEF7A2FEBFE0384800780E28A0
:1059A0002BD1029848BB012002904FF6FF7034497A
:1059B000088064238222002100900846FBF7E0FF64
:1059C00030A00C210B467822CDE900100F210020D9
:1059D000FCF73CFA3EA00C210B467822CDE90010E2
:1059E0001E210020FCF732FA00202B4908702B49B9
:1059F00008700B202A4908708FE0204800780E2894
:105A000009D128480078012804D1002025490870D0
:105A1000FEF7F2FF81E0194800780F286ED1029856
:105A200050BB012002904FF6FF7015490880642397
:105A30008222002100900846FBF7A2FF11A00C2152
:105A40000B467822CDE900100F210020FCF7FEF96B
:105A500025A00C210B467822CDE900101E21002044
:105A6000FCF7F4F900200C4908700B200B49087072
:105A700000200B49087050E040E000003800002092
:105A80004E000020696E707574206F6C6420706128
:105A90007373776F726400003100002032000020C1
:105AA00033000020350000206164642066696E6761
:105AB00065727072696E7420202000006164642039
:105AC0004943206963617264202020202020000067
:105AD00064656C2066696E6765727072696E7420A9
